:060000000219FD02035C81
:03000B0002008070
:0300130002036F76
:03001B000200B62A
:03002B00020325A8
:03005B0002037E1F
:030073000203493C
:10008000C0D075D01018B8CF0408208007B2808681
:100090008AD0D03253A4FED280C2A98F8E7589AA8D
:1000A000C289C28B758A00D2A8D2AA43F74043E620
:1000B00010C228D0D032C2A8C28E855A8BC0D0754B
:1000C000D008C0E0C0F0C2CAA9CCAACDD2CAC3E948
:1000D000955BF9EA955C7049C3E9955D4043955D90
:1000E000503FB8103C7800A9597D00E2FEC39DC383
:1000F00099402E99EC33FC08E2FDC39EC399402140
:1001000099EC33FC08E2FEC39DC399401499EC338B
:10011000FC08E2FDC39EC399400799EC33FC0880BC
:1001200002806AE2FEC39DC399406299EB33FB08EB
:10013000E2FDC39EC399405599EB33FB08E2FEC331
:100140009DC399404899EB33FB08E2FDC39EC399D8
:10015000403B99EB33FB08E2FEC39DC399402E99C7
:10016000EB33FB08E2FDC39EC399402199EB33FBBF
:1001700008E2FEC39DC399401499EB33FB08E2FDEE
:10018000C39EC399400799EB33FB08801E0530E5F9
:100190003070021530C3E5309432400AD225755EC6
:1001A00000755F00610F75310A610FE2FEC39DC3E8
:1001B0009940DA99EA33FA08E2FDC39EC39940CD2B
:1001C00099EA33FA08E2FEC39DC39940C099EA3325
:1001D000FA08E2FDC39EC39940B399EA33FA08EBEB
:1001E000C46B6C6A302701F4540F70A1C3EBF4FAAE
:1001F0009460FBECF4540F9400FC5018EA7C007BF4
:1002000000600CC3135007B55E05055F8006E4F57A
:100210005E755F0030221EC3EB94D0F5F0EC9407BE
:10022000C2264005ABF0FCD226202102B226C3EB49
:1002300033FBEC33FCEB54F04CC475F00584FAEC62
:1002400013FCEB132AFBEC3400FC30E3047BFF7C53
:1002500007201C27301124EC700C798187F0C3EB48
:1002600095F05002ABF0E537601175F028A42BFB38
:10027000EC3400FC30E3047BFF7C07EB54F84CC407
:1002800023F97007EB7004D2258005753200C22572
:10029000E53060021530C3E550FD95514002AD5187
:1002A000C3ED995008ED75F008A4FBACF0C3EC1356
:1002B000F45403FAEB13F4F930291CEBF454012441
:1002C000C0F8E623F630E00FE92401F97009EA34BA
:1002D00000FA30E2021A19302B0BC3E99432FBEA20
:1002E0009400FC5003E4FBFC894C8A4D8B4E8C4FF0
:1002F00075310A302719302816758E017589A2D2FA
:100300008043A401780085668AC28DD2A9800F78C7
:1003100000758A00D2A8D2AA43F74043E610D0F075
:10032000D0E0D0D032C0E0C2CF053B302403102350
:1003300015D223E5316005153130250AD225053265
:10034000E53270021532D0E032C2AF53E67F5391EE
:100350007F7592FA7593FFC218D2AF32C0E0E58A7A
:10036000855A8BC0D075D008F208D0D0D0E032C208
:10037000AAD28EC2CA85CC5B85CD5CD2CA32C2AF4E
:10038000C0E0E5F9E5FA301F0520E223800330E202
:100390001E20E11B854CFB854DFC854EE9854FEA0F
:1003A000D21FE54D20E102C21F53F7BF53E6EF53C2
:1003B000F7DFD0E0D2AF327901801479058010796F
:1003C0000A800C7964800879C8800479FA80007802
:1003D00017E4D5E0FDD8FAD9F6227A427B3580249D
:1003E0007A2D7B4D801E7A267B5C80187A197B8C57
:1003F00080127A147BAF800C7A427B1E80067A2DA5
:100400007B2C8000E5567001227902E4C291D5E090
:10041000FDD290D5E0FDC290D5E0FDD291D5E0FDB2
:10042000E920E002D28630E002D292E556D5E0FD26
:10043000E920E002C28630E002C2927496D5E0FD67
:10044000D9C9EA78C8D8FED5E0F9DBBDC2912271DE
:10045000DA71E071E62271FE71DA2271E671E07103
:10046000DA22901A70E493F4601B7C3E901A74E4D4
:1004700093A3FB6010E493FA600491048004EBF909
:1004800071CFA3DCEA901AF02278A5E6F954037044
:1004900000E9540C7000E954307000E954C0700059
:1004A00022C286C290C292C287C291C29375D4FF03
:1004B00075D5FF22201E2E78FF201026E53A6022F7
:1004C000E542601E74FF301102747F8542F084851E
:1004D0003AF0A4F8C5F0600278FFC3E895525002E4
:1004E000A852885122C3E54194A0E5429400E55109
:1004F0005003148001046002F551220553C3E553F3
:100500009408405130EDF4AABDABBE75530079A0FC
:10051000E76041EB7006E5546018800CC3EA95541F
:10052000600EE5545005600A1480070460FA8002EA
:10053000E554F554C39555401B7550C0C394044011
:1005400013755080C39404400B755040C39404400D
:100550000375500022E5502410500274FFF550221C
:100560007541007542F022C2AFC2CAA8CCA9CDAA7B
:100570003B30CF010AD2CAD2AFC3EA13FAE913F96A
:10058000E813F8AB3CAC3D883C893DC3E89BF8E9F7
:100590009C201008547FF9301E42C17EAD3E8A3E39
:1005A000F9EA9D547FFA600678FF79FF8013AE3F29
:1005B000AF408B3F8C40A83CA93DC3E89EF8E99F23
:1005C000F9C3E54213FBE54113FAE82AF541E93B9B
:1005D000F54250067541FF7542FF804DAA41AB427E
:1005E000AC41AD427E047F02C3EB9404400D1E1F5C
:1005F000C3EB940840052011021E1FC3ED13FDEC50
:1006000013FCDEF7C3EA9CFAEB9DFBEF6009C3E93C
:1006100013F9E813F8DFF7EA28FAEB39FB8A418B84
:100620004250067BFF8B418B42C3EB94025002D2B7
:100630001E3010047F03801C7892E6FFC3E53894D7
:100640008240110FC3E53894A040010FC3EF940618
:1006500040027F057E02E542C4540FF9E542C454CE
:10066000F0F8E541C4540F28F8C3E89EFAE9940075
:10067000FB40057050EA704D7A017B008047AA412B
:10068000AB42EBC4FEEAC4540F4EFCC3EA9CFAEB47
:100690009400FBC3E813C313F8EA28FAEB3400FB19
:1006A0008A418B42C394024002C21E7802EBC4FE10
:1006B0007B00EAC4540F4EFAC398FA400270027AE3
:1006C000017892E6FF202806301808120AAC30188C
:1006D0000280FB854892854993D21843E680C3E4A3
:1006E0009AF8E49BF9C3E833F8E933F9201E67E888
:1006F000FAE9FBD3E913FDE813FC88488949C3EF05
:100700009403602FEF20E00CE82CF8E93DF9ECFAB7
:10071000EDFB800BE8D338F8E939F97AFF7BFFC3AA
:10072000EF9403400E8A4A8B4B884489458C468D52
:10073000478056884A894B8A448B458C468D473082
:100740001047754AF0754BFF7546F07547FF7548C1
:10075000F07549FF8033E8FAD313FC8848C3EF945F
:10076000036020EF20E007E82CF8ECFA8007E82887
:100770002401F87AFFC3EF940340088A4A88448C26
:10078000468006884A8A448C46202806301808127B
:100790000AAC30180280FB753502D21843E680306F
:1007A000112DA841A942C3E913F9E813F830100448
:1007B000E92440F9C2AF53E67F759100C3E498F590
:1007C00094E499F595759104D21843E680D2AF224E
:1007D00075F000301D0E75F040800975F040301D39
:1007E0000375F000D2197543007A027B02201E1DAA
:1007F000301102C2193010067A367B36800F7B2802
:10080000E542700104FAC3942840027A28201811A6
:10081000E543600D301003D53504D21A8066120707
:100820009A0543E59B5440B5F00DE53460BB2019B3
:10083000B8DADAC21A804D20100B2019110AC3EA67
:100840009B40CA80A40AC3EA9B40011A80BFC21918
:1008500053E67F759100301E107594007595F07504
:100860009104D21843E6808080E5427EFFC3334086
:1008700009C3334005C3334001FEC3E49E759400B1
:10088000F59580DBC2AF53E67F854492854593752D
:100890009100854A94854B95759104D21843E68062
:1008A000D2AF201013301A1220110F201D0C201966
:1008B00009158115810211DD053422E53875F0072F
:1008C000A430190105F0A2F013A2F113A2F213F55E
:1008D00038C394785003753878C3E5389539400C9F
:1008E000C286C290C29275D4FF75D5FF202805300C
:1008F000180751AC30180280FB854692854793D289
:100900001843E68022201212C2AFC291D28775D45A
:10091000FF75D5F3D2AF759F4222C2AFC291D29379
:1009200075D43F75D5FFD2AF759F4222201212C2F7
:10093000AFC29275D4FF75D5FCD287D2AF759F52E6
:1009400022C2AFC28675D4FF75D5FCD293D2AF75E3
:100950009F3222201212C2AFC287D29375D4FF7584
:10096000D5FCD2AF759F3222C2AFC293D28775D465
:10097000FF75D5FCD2AF759F5222201212C2AFC2B2
:100980009075D43F75D5FFD293D2AF759F4222C2E6
:10099000AFC29075D4FF75D5F3D287D2AF759F42A1
:1009A00022201212C2AFC293D29175D43F75D5FFE7
:1009B000D2AF759F5222C2AFC287D29175D4FF7554
:1009C000D5F3D2AF759F3222201212C2AFC2867504
:1009D000D4FF75D5F3D291D2AF759F3222C2AFC288
:1009E0009275D43F75D5FFD291D2AF759F522274C4
:1009F00032A28040032080F750033080F2D5E0F32C
:100A0000922722E55E6071F8C3940650075179126F
:100A100003C7805EC3E55F9406405DB80704C2214A
:100A20008050B80804D2218049B80904C22280420B
:100A3000B80A04D222803BB8140A7988E714A2E0ED
:100A40009221802EB8150B7988E714A2E0B3922189
:100A50008020B80C1DE4A22192E0A22292E1047948
:100A600088F77557A57558F1B1027557007558008C
:100A7000D2AF755E00755F0022C2AF1204A17999F2
:100A80008756B801051203DA801BB802051203E08D
:100A90008013B803051203E6800BB804051203ECBB
:100AA00080031203F279988756D2AF22C0D075D056
:100AB00010BC0029C2AF854126854227D2AFE5266A
:100AC000A23813F9A2391329F526E52703C2E7F95D
:100AD00003C2E739F5270C201803D0D022BC01153A
:100AE000E5277052E526700675270F7526FF0C2046
:100AF0001803D0D022BC0215E526C465266527F46C
:100B000078D0A66071B30C201803D0D022BC030BA0
:100B1000E52671B30C201803D0D022BC040CE526C6
:100B2000C471B30C201803D0D022E52771B3087C20
:100B300000D0D0D2282220E71620E61D20E527206D
:100B4000E43420E34120E25020E15CE52641EEA2BE
:100B50003733F52675270F41EEA23733A23633F52A
:100B60002675270D41EEA23733A23633A23533F571
:100B70002675270B41EEE52654F0C23C4527C4F507
:100B80002675270941EEE526A23813A23913A23AA9
:100B900013F52675270741EEE526A23813A239136F
:100BA000F52675270541EEE526A23813F5267527AB
:100BB0000341EE540F23900BBA7361DA61E461F1E3
:100BC0008102810C81198123813781448158815FA1
:100BD0008170817A8191819B81AF08A66208A660AD
:100BE00008A6602208A66008A66108A66008A6609C
:100BF0002286F0E561B5F002E562F608A66208A675
:100C0000602208A66008A66208A6602208A66108FD
:100C1000A66008A66008A6602208A66108A661086A
:100C2000A6602286F0E561B5F002E562F608A660EE
:100C300008A66108A6602208A66008A66008A6614A
:100C400008A6602286F0E561B5F002E562F608A626
:100C50006108A66008A6602208A66208A66122862E
:100C6000F0E561B5F002E562F608A66108A661222A
:100C700008A66008A66108A6612286F0E561B5F0C5
:100C800002E562F608A66008A66008A66008A660ED
:100C90002208A66108A66008A6612286F0E561B573
:100CA000F002E562F608A66008A66008A6612208C0
:100CB000A66008A66008A66008A66122901A0D78B2
:100CC00020B13FE520B4550AA3B13FE520B4AA0204
:100CD00080127557A57558F1B1C6B10275570075E8
:100CE0005800801D901A0378807B0AB13FA308DB6F
:100CF000FA901A0F788C7B1AB13FA308DBFA901A8E
:100D00002922C2AFB182B1A4B15F901A007400B1C0
:100D100044A3740DB144A374CBB144901A037880FA
:100D20007B0AB143A308DBFA901A0F788C7B1AB1C7
:100D300043A308DBFAB195B1B7B173901A2922E445
:100D400093F622E6438F01538FFDFFC3E583941C86
:100D5000400122EF8557B78558B7F0538FFE2243E5
:100D60008F02438F018557B78558B7901A0DF053FE
:100D70008FFC22901A0D7455B144901A0E74AAB1CA
:100D800044227A3079D07820901A40B13FE520F79C
:100D900009A3DAF7227A3079D0901A40E7B14409F2
:100DA000A3DAF9227A8C79007820901A70B13FE5A5
:100DB00020F309A3DAF7227A8C7900901A70E3B154
:100DC0004409A3DAF922788076FF087633087601A1
:100DD0000876010876190876FF087609087618085B
:100DE00076010876FF08080876FF0876000876FF87
:100DF0000876FF0876FF0876FF0876040876FF0875
:100E000076FF0876FF0876FF0876FF0876280876D2
:100E1000500876040876FF0876020876FF0876FF09
:100E20000876FF0876070876FF0876FF0876FF0841
:100E30007600087600227888E614A2E19222A2E0E9
:100E400092217884745096500276507886740D966C
:100E50005002760D863A789CE67539FFB402037528
:100E600039A0B4030375398278A0E6F860067428C7
:100E70002409D8FCF55578988656788DE624FF929B
:100E80002B7883E624FF922978C0760008765522D5
:100E90007557007558007597DE7597AD7581B0432D
:100EA000FF8075EF0675A9001204A175803F75F1EA
:100EB000C375A4C075803F75D4FF75900075F20F9F
:100EC00075A50F75900075D5FF75A60175A72075DE
:100ED000F30175CC0175A70075E34075E2021204B9
:100EE000A1E4F8F6D8FDB1C691BCD136C2AF120369
:100EF000C31204621204891203C3C2AF755700758E
:100F000058001204A175A91375A71075C10075A723
:100F100000C224780979007A0030800CDAFBD9F716
:100F2000D8F3120456021C00302A0E12044F12038A
:100F3000CB1203CB1203CBC22A758851758E017573
:100F400089AA758C00758D0075C80475910475D8D3
:100F50004075D90875F782759E0775960275DA4255
:100F600075DB42759B80759D0075D10C75BCB9759C
:100F7000BB1075E88075B2011203B731EF75E480DC
:100F800030270375E408C22875A82D75E69075B85A
:100F900003D2AF758E0C755A80755910755D5075FA
:100FA00060F77561E77562D67566E17563EB756428
:100FB000CA7565A975300A1203C3E530602B755AEE
:100FC000C0755908755D287560FF7561F77562EF2A
:100FD0007566E17563FB7564EB7565DA75300A1249
:100FE00003C3E5306003020EFAC0D075D010AF8E97
:100FF000D0D0D22A753700C2AF1203F8D2AF120395
:10100000C33025FAC2AF1203FED2AFE4F541F54278
:10101000F55EF55FF533F53BC3E53B945E402C751B
:101020003B000533789AE67814146012782814602F
:101030000D786414600878C8146003753300C3E544
:101040003398400715337804120A79202803120ACE
:10105000AC30250CE5317003020EFA120A0380B899
:101060001203C32025B2C2AF1204A1D2AFE4F5220D
:10107000F523F5381203B775E89030EDFD85BD54C2
:10108000E5BE70037554007553081204FB755308D0
:10109000C2AF79848752855250855251D2AF75A71D
:1010A0001075C13075A70075A903D224C3E55A3362
:1010B000F55AC3E55D33F55DC3E55933F559E56090
:1010C000C563F560E561C564F561E562C565F56216
:1010D00075663CA2219212302204A2269212D210EE
:1010E000D21175340075360C1209A11209C8120507
:1010F000601205671205601205671205601207DBB2
:101100001208BB1209051205671207D01204B412A7
:1011100008BB12092C1205671207DB1208BB120963
:10112000531205671207D01208BB12097A1205671D
:101130001207DB1208BB1209A112056775E89012AD
:1011400007D01208BB1209C81204FB120567301041
:1011500017855250C3E5349418500530259F21E27D
:10116000C210855250855251301118201D15E53698
:10117000147006C211D21C8084F53620220320256B
:101180006101FD753700D21B20220F78FA79A4E7A0
:1011900060027803C3E532985048E531604430225C
:1011A00017201205202607800F302602800A201DF6
:1011B00007D21D855250212478F0301D05855250EC
:1011C0007820C3E54298500201FD301D15C21DA2D2
:1011D000269212D21175361285525001FD201B0243
:1011E0000537C2AF1204A175220075230075A9133B
:1011F00075A71075C10075A700C224D3E55A13F571
:101200005AC3E55D13F55DC3E55913F559E560C5AE
:1012100063F560E561C564F561E562C565F5627514
:1012200066E1D2AF1203C31204A1202513C3E53730
:10123000940450020166C2AF12045BD2AF020FE900
:1012400075370078A4E66006D287D291D293021057
:011250000B92
:1019FD00020E90000DCBFF33010119FF091801FFF5
:101A0D0055AAFF00FFFFFFFF04FFFFFFFFFF285058
:0D1A1D0004FF02FFFFFF07FFFFFF0000FFB7
:101A400023435F485F3530232020202020202020A2
:101A500023424C48454C492445464D3842323123B7
:101A6000426C75656A6179202854455354292020B9
:101A7000023A042034420D00452D0D0034420D0081
:101A80004E27D300452DD019341900000000000066
:101A90000000000000000000000000000000000046
:101AA0000000000000000000000000000000000036
:101AB0000000000000000000000000000000000026
:101AC0000000000000000000000000000000000016
:101AD0000000000000000000000000000000000006
:101AE00000000000000000000000000000000000F6
:011AF000FFF6
:101C0000C2AFC2D37597DE7597AD7581C075A90057
:101C100043FF80752438752503B1DB7529A5752A26
:101C2000F143F10153A4FED28075D4FF75E3407DEA
:101C3000FA780379E67C10752200752300901DE880
:101C40007B06752498752501308002814820800824
:101C5000D8FBD9F9DCF781BA308008D8FBD9F9DC98
:101C6000F781BAB19BE493A3C39A6004DDC381BA40
:101C7000DBDBB18D600281317B08E493FAA3B16EA6
:101C8000DBF87A30B16E752200752300B18DEAFC65
:101C9000EBFDC3ED94FE400EB18D8A278B28ED300D
:101CA000E0048A828B83B18D7AC270D8C3ED94FE32
:101CB000601950CEBD0029EC600F7520007521FF22
:101CC000752900752A000200008100A827A92808AC
:101CD00009D804D90281DDB191EAF281D10D81A642
:101CE000C3ED94035051EDA2E092007AC5C3E582A2
:101CF0009400E583941C508C200010438F02438F86
:101D0000018529B7852AB7F0300027A827A9280818
:101D100009438F01538FFDD804D902A132C3E58353
:101D2000941C4003A3A117E28529B7852AB7F0A325
:101D3000A117538FFC81827AC1BD030CE493A3FAEF
:101D4000B152DCF8B14A81828184AA22AB23B16E00
:101D5000EBFAEA6222752608C3E52313F523E52290
:101D600013F52250066323A0632201D526EAB1DBD6
:101D7000B1DB75260AEAF4200102D280300102C2EA
:101D800080B1DBC3134002C201D526EB22B191EA38
:101D9000FB208002A191308002A196752608AE2416
:101DA000AF25C3EF13FFEE13FEB1DFB1DBC3EA13C0
:101DB0003080024480FA30E703632201C3E5231335
:101DC000F523E52213F52250066323A0632201D5F3
:101DD00026D9E52265236523F52222AE24AF250E00
:101DE0000FDEFEDFFCD20122424C48656C693437BD
:061DF0003164E8B20601B7
:00000001FF
