:060000000219FD0203637A
:03000B0002008070
:030013000203766F
:03001B000200B62A
:03002B0002032CA1
:03005B0002038518
:0300730002035035
:10008000C0D075D01018B8CF0408208007B2808681
:100090008AD0D03253A4FED280C2A98F8E7589AA8D
:1000A000C289C28B758A00D2A8D2AA43F74043E620
:1000B00010C228D0D032C2A8C28E855A8BC0D0754B
:1000C000D008C0E0C0F0C2CAA9CCAACDD2CAC3E948
:1000D000955BF9EA955C7049C3E9955D4043955D90
:1000E000503FB8103C7800A9597D00E2FEC39DC383
:1000F00099402E99EC33FC08E2FDC39EC399402140
:1001000099EC33FC08E2FEC39DC399401499EC338B
:10011000FC08E2FDC39EC399400799EC33FC0880BC
:1001200002806AE2FEC39DC399406299EB33FB08EB
:10013000E2FDC39EC399405599EB33FB08E2FEC331
:100140009DC399404899EB33FB08E2FDC39EC399D8
:10015000403B99EB33FB08E2FEC39DC399402E99C7
:10016000EB33FB08E2FDC39EC399402199EB33FBBF
:1001700008E2FEC39DC399401499EB33FB08E2FDEE
:10018000C39EC399400799EB33FB08801E0530E5F9
:100190003070021530C3E5309432400AD225755EC6
:1001A00000755F00611675310A6116E2FEC39DC3DA
:1001B0009940DA99EA33FA08E2FDC39EC39940CD2B
:1001C00099EA33FA08E2FEC39DC39940C099EA3325
:1001D000FA08E2FDC39EC39940B399EA33FA08EBEB
:1001E000C46B6C6A302701F4540F70A1C3EBF4FAAE
:1001F0009460FBECF4540F9400FC5018EA7C007BF4
:1002000000600CC3135007B55E05055F8006E4F57A
:100210005E755F0030221EC3EB94D0F5F0EC9407BE
:10022000C2264005ABF0FCD226202102B226C3EB49
:1002300033FBEC33FCEB54F04CC475F00584FAEC62
:1002400013FCEB132AFBEC3400FC30E3047BFF7C53
:1002500007201C27301124EC700C798187F0C3EB48
:1002600095F05002ABF0E537601175F028A42BFB38
:10027000EC3400FC30E3047BFF7C07EB54F84CC407
:1002800023F97007EB7004D2258005753200C22572
:10029000E53060021530C3E550FD95514002AD5187
:1002A000C3ED995008ED75F008A4FBACF08CF0EBB1
:1002B000A2F013A2F113F4F9EC0303F45401FA30A1
:1002C000291CEBF4540324C0F8E623F630E00FE9D0
:1002D0002401F97009EA3400FA30E1021A19302BCE
:1002E0000BC3E99446FBEA9400FC5003E4FBFC8951
:1002F0004C8A4D8B4E8C4F75310A30271930281699
:10030000758E017589A2D28043A401780085668A22
:10031000C28DD2A9800F7800758A00D2A8D2AA43D4
:10032000F74043E610D0F0D0E0D0D032C0E0C2CFEA
:10033000053B302403102315D223E5316005153128
:1003400030250AD2250532E53270021532D0E0326E
:10035000C2AF53E67F53917F7592FA7593FFC2182F
:10036000D2AF32C0E0E58A855A8BC0D075D008F292
:1003700008D0D0D0E032C2AAD28EC2CA85CC5B856A
:10038000CD5CD2CA32C2AFC0E0E5F9E5FA301F0554
:1003900020E123800330E11E20E01B854CFB854DCE
:1003A000FC854EE9854FEAD21FE54D20E002C21FD1
:1003B00053F7BF53E6EF53F7DFD0E0D2AF32790106
:1003C000801479058010790A800C7964800879C8D6
:1003D000800479FA80007817E4D5E0FDD8FAD9F6E0
:1003E000227A427B3580247A2D7B4D801E7A267BB3
:1003F0005C80187A197B8C80127A147BAF800C7A1F
:10040000427B1E80067A2D7B2C8000E556700122EF
:100410007902E4C291D5E0FDD290D5E0FDC290D53D
:10042000E0FDD291D5E0FDE920E002D28630E00285
:10043000D292E556D5E0FDE920E002C28630E00226
:10044000C2927496D5E0FDD9C9EA78C8D8FED5E045
:10045000F9DBBDC2912271E171E771ED2291057165
:10046000E12271ED71E771E122901A70E493F4607A
:100470001B7C3E901A74E493A3FB6010E493FA6033
:1004800004910B8004EBF971D6A3DCEA901AF022F8
:1004900078A5E6F954037000E9540C7000E9543073
:1004A0007000E954C0700022C286C290C292C28716
:1004B000C291C29375D4FF75D5FF22201E2E78FFFE
:1004C000201026E53A6022E542601E74FF301102DA
:1004D000747F8542F084853AF0A4F8C5F060027814
:1004E000FFC3E895525002A852885122C3E54194B7
:1004F000A0E5429400E5515003148001046002F528
:1005000051220553C3E5539408405130EDF4AABD80
:10051000ABBE75530079A0E76041EB7006E554600F
:1005200018800CC3EA9554600EE5545005600A1417
:1005300080070460FA8002E554F554C39555401BCA
:100540007550C0C394044013755080C39404400B8D
:10055000755040C39404400375500022E5502410A8
:10056000500274FFF550227541007542F022C2AF6F
:10057000C2CAA8CCA9CDAA3B30CF010AD2CAD2AFF9
:10058000C3EA13FAE913F9E813F8AB3CAC3D883C35
:10059000893DC3E89BF8E99C201008547FF9301E80
:1005A00042C185AD3E8A3EF9EA9D547FFA600678E5
:1005B000FF79FF8013AE3FAF408B3F8C40A83CA932
:1005C0003DC3E89EF8E99FF9C3E54213FBE54113FB
:1005D000FAE82AF541E93BF54250067541FF7542BC
:1005E000FF804DAA41AB42AC41AD427E047F02C3C5
:1005F000EB9404400D1E1FC3EB940840052011022C
:100600001E1FC3ED13FDEC13FCDEF7C3EA9CFAEBEF
:100610009DFBEF6009C3E913F9E813F8DFF7EA2857
:10062000FAEB39FB8A418B4250067BFF8B418B42B0
:10063000C3EB94025002D21E3010047F03801C785A
:1006400092E6FFC3E538948240110FC3E53894A0C9
:1006500040010FC3EF940640027F057E02E542C4CD
:10066000540FF9E542C454F0F8E541C4540F28F89A
:10067000C3E89EFAE99400FB40057050EA704D7A99
:10068000017B008047AA41AB42EBC4FEEAC4540F91
:100690004EFCC3EA9CFAEB9400FBC3E813C313F8C7
:1006A000EA28FAEB3400FB8A418B42C394024002F1
:1006B000C21E7802EBC4FE7B00EAC4540F4EFAC39C
:1006C00098FA400270027A017892E6FF20280630FC
:1006D0001808120AB330180280FB854892854993A6
:1006E000D21843E680C3E49AF8E49BF9C3E833F8F0
:1006F000E933F9201E67E8FAE9FBD3E913FDE813B3
:10070000FC88488949C3EF9403602FEF20E00CE890
:100710002CF8E93DF9ECFAEDFB800BE8D338F8E969
:1007200039F97AFF7BFFC3EF9403400E8A4A8B4B63
:10073000884489458C468D478056884A894B8A442F
:100740008B458C468D47301047754AF0754BFF75C9
:1007500046F07547FF7548F07549FF8033E8FAD3D6
:1007600013FC8848C3EF94036020EF20E007E82CD7
:10077000F8ECFA8007E8282401F87AFFC3EF940325
:1007800040088A4A88448C468006884A8A448C46B7
:10079000202806301808120AB330180280FB75357D
:1007A00002D21843E68030112DA841A942C3E913B3
:1007B000F9E813F8301004E92440F9C2AF53E67F9A
:1007C000759100C3E498F594E499F595759104D278
:1007D0001843E680D2AF2275F000301D0E75F04050
:1007E000800975F040301D0375F000D21975430083
:1007F0007A027B02201E1D301102C2193010067AC7
:10080000367B36800F7B28E542700104FAC39428BA
:1008100040027A28201811E543600D301003D535C9
:1008200004D21A80661207A10543E59B5440B5F037
:100830000DE53460BB2019B8DADAC21A804D2010F9
:100840000B2019110AC3EA9B40CA80A40AC3EA9B81
:1008500040011A80BFC21953E67F759100301E1007
:100860007594007595F0759104D21843E6808080E8
:10087000E5427EFFC3334009C3334005C333400123
:10088000FEC3E49E759400F59580DBC2AF53E67F0E
:10089000854492854593759100854A94854B95755D
:1008A0009104D21843E680D2AF201013301A1220E0
:1008B000110F201D0C201909158115810211EA055F
:1008C0003422E53875F007A430190105F0A2F013C1
:1008D000A2F113A2F213F538C39478500375387857
:1008E000C3E5389539400CC286C290C29275D4FFD8
:1008F00075D5FF20280530180751B330180280FB4A
:10090000854692854793D21843E68022201212C270
:10091000AFC291D28775D4FF75D5F3D2AF759F4220
:1009200022C2AFC291D29375D43F75D5FFD2AF75B5
:100930009F4222201212C2AFC29275D4FF75D5FC1D
:10094000D287D2AF759F5222C2AFC28675D4FF75CF
:10095000D5FCD293D2AF759F3222201212C2AFC201
:1009600087D29375D4FF75D5FCD2AF759F3222C262
:10097000AFC293D28775D4FF75D5FCD2AF759F52A5
:1009800022201212C2AFC29075D43F75D5FFD29308
:10099000D2AF759F4222C2AFC29075D4FF75D5F316
:1009A000D287D2AF759F4222201212C2AFC293D219
:1009B0009175D43F75D5FFD2AF759F5222C2AFC299
:1009C00087D29175D4FF75D5F3D2AF759F322220AF
:1009D0001212C2AFC28675D4FF75D5F3D291D2AFD1
:1009E000759F3222C2AFC29275D43F75D5FFD291A6
:1009F000D2AF759F52227432A28040032080F750FC
:100A0000033080F2D5E0F3922722E55E6071F8C3EF
:100A10009406500751801203CE805EC3E55F9406B2
:100A2000405DB80704C2218050B80804D221804933
:100A3000B80904C2228042B80A04D222803BB8140A
:100A40000A7988E714A2E09221802EB8150B7988E4
:100A5000E714A2E0B392218020B80C1DE4A22192F9
:100A6000E0A22292E1047988F77557A57558F1B193
:100A700009755700755800D2AF755E00755F00228A
:100A8000C2AF1204A879998756B801051203E18014
:100A90001BB802051203E78013B803051203ED80AB
:100AA0000BB804051203F380031203F979988756F3
:100AB000D2AF22C0D075D010BC0029C2AF8541266C
:100AC000854227D2AFE526A23813F9A2391329F5BA
:100AD00026E52703C2E7F903C2E739F5270C2018FA
:100AE00003D0D022BC0115E5277052E526700675AB
:100AF000270F7526FF0C201803D0D022BC0215E565
:100B000026C465266527F478D0A66071BA0C201833
:100B100003D0D022BC030BE52671BA0C201803D0F9
:100B2000D022BC040CE526C471BA0C201803D0D026
:100B300022E52771BA087C00D0D0D2282220E716FF
:100B400020E61D20E52720E43420E34120E2502068
:100B5000E15CE52641F5A23733F52675270F41F50F
:100B6000A23733A23633F52675270D41F5A2373368
:100B7000A23633A23533F52675270B41F5E5265409
:100B8000F0C23C4527C4F52675270941F5E526A2A4
:100B90003813A23913A23A13F52675270741F5E554
:100BA00026A23813A23913F52675270541F5E52647
:100BB000A23813F52675270341F5540F23900BC176
:100BC0007361E161EB61F8810981138120812A81E0
:100BD0003E814B815F816681778181819881A2818D
:100BE000B608A66208A66008A6602208A66008A645
:100BF0006108A66008A6602286F0E561B5F002E50E
:100C000062F608A66208A6602208A66008A6620826
:100C1000A6602208A66108A66008A66008A6602251
:100C200008A66108A66108A6602286F0E561B5F015
:100C300002E562F608A66008A66108A6602208A67A
:100C40006008A66008A66108A6602286F0E561B586
:100C5000F002E562F608A66108A66008A660220810
:100C6000A66208A6612286F0E561B5F002E562F6AB
:100C700008A66108A6612208A66008A66108A66108
:100C80002286F0E561B5F002E562F608A66008A6E6
:100C90006008A66008A6602208A66108A66008A6EB
:100CA000612286F0E561B5F002E562F608A660080B
:100CB000A66008A6612208A66008A66008A66008CB
:100CC000A66122901A0D7820B146E520B4550AA3FA
:100CD000B146E520B4AA0280127557A57558F1B146
:100CE000CDB109755700755800801D901A037880A2
:100CF0007B0AB146A308DBFA901A0F788C7B1AB1F5
:100D000046A308DBFA901A2922C2AFB189B1ABB170
:100D100066901A007400B14BA3740DB14BA374CB51
:100D2000B14B901A0378807B0AB14AA308DBFA9092
:100D30001A0F788C7B1AB14AA308DBFAB19CB1BEBA
:100D4000B17A901A2922E493F622E6438F01538F59
:100D5000FDFFC3E583941C400122EF8557B78558FA
:100D6000B7F0538FFE22438F02438F018557B7851B
:100D700058B7901A0DF0538FFC22901A0D7455B18C
:100D80004B901A0E74AAB14B227A3079D078209009
:100D90001A40B146E520F709A3DAF7227A3079D074
:100DA000901A40E7B14B09A3DAF9227A8C790078DE
:100DB00020901A70B146E520F309A3DAF7227A8C65
:100DC0007900901A70E3B14B09A3DAF922788076A2
:100DD000FF0876330876010876010876190876FF51
:100DE0000876090876300876010876FF0808087644
:100DF000FF0876000876FF0876FF0876FF0876FF82
:100E00000876040876FF0876FF0876FF0876FF0864
:100E100076FF0876280876500876040876FF08766C
:100E2000020876FF0876FF0876FF0876070876FF47
:100E30000876FF0876FF087600087600227888E6B4
:100E400014A2E19222A2E09221788474509650027A
:100E500076507886740D965002760D863A789CE628
:100E60007539FFB402037539A0B40303753982786C
:100E7000A0E6F8600674282409D8FCF55578988611
:100E800056788DE624FF922B7883E624FF9229780A
:100E9000C0760008761108765508767722755700D7
:100EA0007558007597DE7597AD7581B043FF8075F5
:100EB000EF0675A9001204A875803F75F1C375A4EB
:100EC000C075803F75D4FF75900075F20F75A50F42
:100ED00075900075D5FF75A60175A72075F301758E
:100EE000CC0175A70075E34075E2021204A8E4F88E
:100EF000F6D8FDB1CD91C3D13DC2AF1203CA1204E1
:100F0000691204901203CAC2AF75570075580012D7
:100F100004A875A91375A71075C10075A700C22490
:100F2000780979007A0030800CDAFBD9F7D8F3120F
:100F3000045D021C00302A0E1204561203D2120362
:100F4000D21203D2C22A758851758E017589AA758D
:100F50008C00758D0075C80475910475D84075D9DD
:100F60000875F781759E0775960275DA4275DB4242
:100F7000759B80759D0075D10C75BCB975BB1075DE
:100F8000E88075B2011203BE31F675E480302703A4
:100F900075E408C22875A82D75E69075B803D2AF20
:100FA000758E0C755A80755910755D507560F775A2
:100FB00061E77562D67566E17563EB7564CA756540
:100FC000A975300A1203CAE530602B755AC07559ED
:100FD00008755D287560FF7561F77562EF7566E1EC
:100FE0007563FB7564EB7565DA75300A1203CAE543
:100FF000306003020F07C0D075D010AF8ED0D0D2B2
:101000002A753700C2AF1203FFD2AF1203CA3025D0
:10101000FAC2AF120405D2AFE4F541F542F55EF530
:101020005FF533F53BC3E53B945E402C753B000513
:1010300033789AE67814146012782814600D786476
:1010400014600878C8146003753300C3E533984012
:101050000715337804120A80202803120AB33025BA
:101060000CE5317003020F07120A0A80B81203CA96
:101070002025B2C2AF1204A8D2AFE4F522F523F5C1
:10108000381203BE75E89030EDFD85BD54E5BE70A5
:1010900003755400755308120502755308C2AF79E1
:1010A000848752855250855251D2AF75A71075C1B1
:1010B0003075A70075A903D224C3E55A33F55AC386
:1010C000E55D33F55DC3E55933F559E560C563F575
:1010D00060E561C564F561E562C565F56275663C0C
:1010E000A2219212302204A2269212D210D211759D
:1010F000340075360C1209A81209CF1205671205C3
:101100006E12056712056E1205671207E21208C219
:1011100012090C12056E1207D71204BB1208C21274
:10112000093312056E1207E21208C212095A12059B
:101130006E1207D71208C212098112056E1207E259
:101140001208C21209A812056E75E8901207D7128C
:1011500008C21209CF12050212056E30101785520F
:1011600050C3E5349418500530259F21EFC21085F7
:101170005250855251301118201D15E53614700655
:10118000C211D21C8084F536202203202561210A59
:10119000753700D21B20220F78FA79A4E760027815
:1011A00003C3E532985048E53160443022172012DD
:1011B00005202607800F302602800A201D07D21D39
:1011C000855250213178F0301D058552507820C36A
:1011D000E542985002210A301D15C21DA226921226
:1011E000D211753612855250210A201B020537C2D2
:1011F000AF1204A875220075230075A91375A710F6
:1012000075C10075A700C224D3E55A13F55AC3E58A
:101210005D13F55DC3E55913F559E560C563F560E8
:10122000E561C564F561E562C565F5627566E1D2A3
:10123000AF1203CA1204A8202513C3E53794045043
:10124000020173C2AF120462D2AF020FF67537000B
:0E12500078A4E66006D287D291D293021018DD
:1019FD00020E9D000DCBFF33010119FF093001FFD0
:101A0D0055AAFF00FFFFFFFF04FFFFFFFFFF285058
:0D1A1D0004FF02FFFFFF07FFFFFF0000FFB7
:101A400023435F485F3730232020202020202020A0
:101A500023424C48454C492445464D3842323123B7
:101A6000426C75656A6179202854455354292020B9
:101A7000023A042034420D00452D0D0034420D0081
:101A80004E27D300452DD019341900000000000066
:101A90000000000000000000000000000000000046
:101AA0000000000000000000000000000000000036
:101AB0000000000000000000000000000000000026
:101AC0000000000000000000000000000000000016
:101AD0000000000000000000000000000000000006
:101AE00000000000000000000000000000000000F6
:011AF000FFF6
:101C0000C2AFC2D37597DE7597AD7581C075A90057
:101C100043FF80752438752503B1DB7529A5752A26
:101C2000F143F10153A4FED28075D4FF75E3407DEA
:101C3000FA780379E67C10752200752300901DE880
:101C40007B06752498752501308002814820800824
:101C5000D8FBD9F9DCF781BA308008D8FBD9F9DC98
:101C6000F781BAB19BE493A3C39A6004DDC381BA40
:101C7000DBDBB18D600281317B08E493FAA3B16EA6
:101C8000DBF87A30B16E752200752300B18DEAFC65
:101C9000EBFDC3ED94FE400EB18D8A278B28ED300D
:101CA000E0048A828B83B18D7AC270D8C3ED94FE32
:101CB000601950CEBD0029EC600F7520007521FF22
:101CC000752900752A000200008100A827A92808AC
:101CD00009D804D90281DDB191EAF281D10D81A642
:101CE000C3ED94035051EDA2E092007AC5C3E582A2
:101CF0009400E583941C508C200010438F02438F86
:101D0000018529B7852AB7F0300027A827A9280818
:101D100009438F01538FFDD804D902A132C3E58353
:101D2000941C4003A3A117E28529B7852AB7F0A325
:101D3000A117538FFC81827AC1BD030CE493A3FAEF
:101D4000B152DCF8B14A81828184AA22AB23B16E00
:101D5000EBFAEA6222752608C3E52313F523E52290
:101D600013F52250066323A0632201D526EAB1DBD6
:101D7000B1DB75260AEAF4200102D280300102C2EA
:101D800080B1DBC3134002C201D526EB22B191EA38
:101D9000FB208002A191308002A196752608AE2416
:101DA000AF25C3EF13FFEE13FEB1DFB1DBC3EA13C0
:101DB0003080024480FA30E703632201C3E5231335
:101DC000F523E52213F52250066323A0632201D5F3
:101DD00026D9E52265236523F52222AE24AF250E00
:101DE0000FDEFEDFFCD20122424C48656C693437BD
:061DF0003164E8B20601B7
:00000001FF
