:060000000219FD02035C81
:03000B0002008070
:0300130002036F76
:03001B000200B62A
:03002B00020325A8
:03005B0002037E1F
:030073000203493C
:10008000C0D075D01018B8CF0408208407B2848679
:100090008AD0D03253A4EFD284C2A98F8E7589AA98
:1000A000C289C28B758A00D2A8D2AA43F74043E620
:1000B00010C228D0D032C2A8C28E855A8BC0D0754B
:1000C000D008C0E0C0F0C2CAA9CCAACDD2CAC3E948
:1000D000955BF9EA955C7049C3E9955D4043955D90
:1000E000503FB8103C7800A9597D00E2FEC39DC383
:1000F00099402E99EC33FC08E2FDC39EC399402140
:1001000099EC33FC08E2FEC39DC399401499EC338B
:10011000FC08E2FDC39EC399400799EC33FC0880BC
:1001200002806AE2FEC39DC399406299EB33FB08EB
:10013000E2FDC39EC399405599EB33FB08E2FEC331
:100140009DC399404899EB33FB08E2FDC39EC399D8
:10015000403B99EB33FB08E2FEC39DC399402E99C7
:10016000EB33FB08E2FDC39EC399402199EB33FBBF
:1001700008E2FEC39DC399401499EB33FB08E2FDEE
:10018000C39EC399400799EB33FB08801E0530E5F9
:100190003070021530C3E5309432400AD225755EC6
:1001A00000755F00610F75310A610FE2FEC39DC3E8
:1001B0009940DA99EA33FA08E2FDC39EC39940CD2B
:1001C00099EA33FA08E2FEC39DC39940C099EA3325
:1001D000FA08E2FDC39EC39940B399EA33FA08EBEB
:1001E000C46B6C6A302701F4540F70A1C3EBF4FAAE
:1001F0009460FBECF4540F9400FC5018EA7C007BF4
:1002000000600CC3135007B55E05055F8006E4F57A
:100210005E755F0030221EC3EB94D0F5F0EC9407BE
:10022000C2264005ABF0FCD226202102B226C3EB49
:1002300033FBEC33FCEB54F04CC475F00584FAEC62
:1002400013FCEB132AFBEC3400FC30E3047BFF7C53
:1002500007201C27301124EC700C798187F0C3EB48
:1002600095F05002ABF0E537601175F028A42BFB38
:10027000EC3400FC30E3047BFF7C07EB54F84CC407
:1002800023F97007EB7004D2258005753200C22572
:10029000E53060021530C3E550FD95514002AD5187
:1002A000C3ED995008ED75F008A4FBACF0C3EC1356
:1002B000F45403FAEB13F4F930291CEBF454012441
:1002C000C0F8E623F630E00FE92401F97009EA34BA
:1002D00000FA30E2021A19302B0BC3E99414FBEA3E
:1002E0009400FC5003E4FBFC894C8A4D8B4E8C4FF0
:1002F00075310A302719302816758E017589A2D2FA
:100300008443A410780085668AC28DD2A9800F78B4
:1003100000758A00D2A8D2AA43F74043E610D0F075
:10032000D0E0D0D032C0E0C2CF053B302403102350
:1003300015D223E5316005153130250AD225053265
:10034000E53270021532D0E032C2AF53E67F5391EE
:100350007F7592FA7593FFC218D2AF32C0E0E58A7A
:10036000855A8BC0D075D008F208D0D0D0E032C208
:10037000AAD28EC2CA85CC5B85CD5CD2CA32C2AF4E
:10038000C0E0E5F9E5FA301F0520E223800330E202
:100390001E20E11B854CFB854DFC854EE9854FEA0F
:1003A000D21FE54D20E102C21F53F7BF53E6EF53C2
:1003B000F7DFD0E0D2AF327901801479058010796F
:1003C0000A800C7964800879C8800479FA80007802
:1003D00017E4D5E0FDD8FAD9F6227A427B3580249D
:1003E0007A2D7B4D801E7A267B5C80187A197B8C57
:1003F00080127A147BAF800C7A427B1E80067A2DA5
:100400007B2C8000E5567001227902E4C294D5E08D
:10041000FDD291D5E0FDC291D5E0FDD294D5E0FDAD
:10042000E920E002D29030E002D292E556D5E0FD1C
:10043000E920E002C29030E002C2927496D5E0FD5D
:10044000D9C9EA78C8D8FED5E0F9DBBDC2942271DB
:10045000DA71E071E62271FE71DA2271E671E07103
:10046000DA22901A70E493F4601B7C3E901A74E4D4
:1004700093A3FB6010E493FA600491048004EBF909
:1004800071CFA3DCEA901AF02278A5E6F95403C2F2
:10049000857002D285E9540CC2867002D286E95476
:1004A00030C2877002D287E954C0700022C290C265
:1004B00091C292C293C294C29575D5FF22201E2E7E
:1004C00078FF201026E53A6022E542601E74FF3076
:1004D0001102747F8542F084853AF0A4F8C5F0607B
:1004E0000278FFC3E895525002A852885122C3E512
:1004F0004194A0E5429400E551500314800104604A
:1005000002F551220553C3E5539408405130EDF4F0
:10051000AABDABBE75530079A0E76041EB7006E55C
:10052000546018800CC3EA9554600EE55450056081
:100530000A1480070460FA8002E554F554C3955507
:10054000401B7550C0C394044013755080C394047D
:10055000400B755040C39404400375500022E55091
:100560002410500274FFF550227541007542F022AC
:10057000C2AFC2CAA8CCA9CDAA3B30CF010AD2CA09
:10058000D2AFC3EA13FAE913F9E813F8AB3CAC3D78
:10059000883C893DC3E89BF8E99C201008547FF90A
:1005A000301E42C187AD3E8A3EF9EA9D547FFA6013
:1005B0000678FF79FF8013AE3FAF408B3F8C40A899
:1005C0003CA93DC3E89EF8E99FF9C3E54213FBE56A
:1005D0004113FAE82AF541E93BF54250067541FF1F
:1005E0007542FF804DAA41AB42AC41AD427E047FD3
:1005F00002C3EB9404400D1E1FC3EB94084005207A
:1006000011021E1FC3ED13FDEC13FCDEF7C3EA9CC1
:10061000FAEB9DFBEF6009C3E913F9E813F8DFF784
:10062000EA28FAEB39FB8A418B4250067BFF8B416B
:100630008B42C3EB94025002D21E3010047F038021
:100640001C7892E6FFC3E538948240110FC3E53869
:1006500094A040010FC3EF940640027F057E02E59F
:1006600042C4540FF9E542C454F0F8E541C4540FB4
:1006700028F8C3E89EFAE99400FB40057050EA7040
:100680004D7A017B008047AA41AB42EBC4FEEAC42D
:10069000540F4EFCC3EA9CFAEB9400FBC3E813C36F
:1006A00013F8EA28FAEB3400FB8A418B42C3940228
:1006B0004002C21E7802EBC4FE7B00EAC4540F4E17
:1006C000FAC398FA400270027A017892E6FF202875
:1006D00006301808120A8E30180280FB8548928571
:1006E0004993D21843E680C3E49AF8E49BF9C3E83F
:1006F00033F8E933F9201E67E8FAE9FBD3E913FD83
:10070000E813FC88488949C3EF9403602FEF20E089
:100710000CE82CF8E93DF9ECFAEDFB800BE8D33856
:10072000F8E939F97AFF7BFFC3EF9403400E8A4A58
:100730008B4B884489458C468D478056884A894B27
:100740008A448B458C468D47301047754AF0754B6F
:10075000FF7546F07547FF7548F07549FF8033E82F
:10076000FAD313FC8848C3EF94036020EF20E0071E
:10077000E82CF8ECFA8007E8282401F87AFFC3EFA8
:10078000940340088A4A88448C468006884A8A44F2
:100790008C46202806301808120A8E30180280FB7A
:1007A000753502D21843E68030112DA841A942C305
:1007B000E913F9E813F8301004E92440F9C2AF5303
:1007C000E67F759100C3E498F594E499F5957591E9
:1007D00004D21843E680D2AF2275F000301D0E75AA
:1007E000F040800975F040301D0375F000D2197596
:1007F00043007A027B02201E1D301102C219301004
:10080000067A367B36800F7B28E542700104FAC3F6
:10081000942840027A28201811E543600D30100317
:10082000D53504D21A80661207A30543E59B5440D0
:10083000B5F00DE53460BB2019B8DADAC21A804D84
:1008400020100B2019110AC3EA9B40CA80A40AC3D6
:10085000EA9B40011A80BFC21953E67F75910030B0
:100860001E107594007595F0759104D21843E680BA
:100870008080E5427EFFC3334009C3334005C33364
:100880004001FEC3E49E759400F59580DBC2AF5332
:10089000E67F854492854593759100854A94854B02
:1008A00095759104D21843E680D2AF201013301A08
:1008B0001220110F201D0C2019091581158102111C
:1008C000BF053422E53875F007A430190105F0A200
:1008D000F013A2F113A2F213F538C3947850037504
:1008E0003878C3E53895394009C290C291C29275F3
:1008F000D5FF202805301807518E30180280FB855F
:100900004692854793D21843E6802220120FC2AF49
:10091000C294D29375D5DBD2AF759F2322C2AFC2EA
:1009200094D29575D5F6D2AF759F232220120FC2AF
:10093000AFC29275D5EDD293D2AF759F1322C2AFDD
:10094000C29075D5EDD295D2AF759F032220120FBC
:10095000C2AFC293D29575D5EDD2AF759F0322C2B7
:10096000AFC295D29375D5EDD2AF759F13222012E9
:100970000FC2AFC29175D5F6D295D2AF759F232223
:10098000C2AFC29175D5DBD293D2AF759F2322201F
:10099000120FC2AFC295D29475D5F6D2AF759F1320
:1009A00022C2AFC293D29475D5DBD2AF759F03221A
:1009B00020120FC2AFC29075D5DBD294D2AF759F13
:1009C0000322C2AFC29275D5F6D294D2AF759F13EF
:1009D000227432A28440032084F750033084F2D57D
:1009E000E0F3922722E55E6071F8C3940650075148
:1009F0005B1203C7805EC3E55F9406405DB80704E1
:100A0000C2218050B80804D2218049B80904C2220A
:100A10008042B80A04D222803BB8140A7988E714CD
:100A2000A2E09221802EB8150B7988E714A2E0B3DA
:100A300092218020B80C1DE4A22192E0A22292E132
:100A4000047988F77557A57558F191E475570075C5
:100A50005800D2AF755E00755F0022C2AF1204ADC0
:100A600079998756B801051203DA801BB80205127E
:100A700003E08013B803051203E6800BB8040512E7
:100A800003EC80031203F279988756D2AF22C0D0CC
:100A900075D010BC0029C2AF854126854227D2AF50
:100AA000E526A23813F9A2391329F526E52703C252
:100AB000E7F903C2E739F5270C201803D0D022BC90
:100AC0000115E5277052E526700675270F7526FF7C
:100AD0000C201803D0D022BC0215E526C46526657B
:100AE00027F478D0A66071950C201803D0D022BCD2
:100AF000030BE52671950C201803D0D022BC040C02
:100B0000E526C471950C201803D0D022E5277195F5
:100B1000087C00D0D0D2282220E71620E61D20E550
:100B20002720E43420E34120E25020E15CE5264127
:100B3000D0A23733F52675270F41D0A23733A2361E
:100B400033F52675270D41D0A23733A23633A235AF
:100B500033F52675270B41D0E52654F0C23C4527D6
:100B6000C4F52675270941D0E526A23813A239130A
:100B7000A23A13F52675270741D0E526A23813A21D
:100B80003913F52675270541D0E526A23813F52639
:100B900075270341D0540F23900B9C7361BC61C631
:100BA00061D361E461EE61FB810581198126813A9F
:100BB00081418152815C8173817D819108A66208A7
:100BC000A66008A6602208A66008A66108A66008BC
:100BD000A6602286F0E561B5F002E562F608A6623D
:100BE00008A6602208A66008A66208A6602208A6D9
:100BF0006108A66008A66008A6602208A66108A68B
:100C00006108A6602286F0E561B5F002E562F608AB
:100C1000A66008A66108A6602208A66008A660086B
:100C2000A66108A6602286F0E561B5F002E562F6ED
:100C300008A66108A66008A6602208A66208A66148
:100C40002286F0E561B5F002E562F608A66108A625
:100C5000612208A66008A66108A6612286F0E56107
:100C6000B5F002E562F608A66008A66008A660086E
:100C7000A6602208A66108A66008A6612286F0E5A3
:100C800061B5F002E562F608A66008A66008A661F4
:100C90002208A66008A66008A66008A66122901A2D
:100CA0000D7820B121E520B4550AA3B121E520B487
:100CB000AA0280127557A57558F1B1A891E475572D
:100CC00000755800801D901A0378807B0AB121A31B
:100CD00008DBFA901A0F788C7B1AB121A308DBFA93
:100CE000901A2922C2AFB164B186B141901A007442
:100CF00000B126A3740DB126A374CBB126901A03BC
:100D000078807B0AB125A308DBFA901A0F788C7BD8
:100D10001AB125A308DBFAB177B199B155901A2918
:100D200022E493F622E6438F01538FFDFFC3E58350
:100D3000941C400122EF8557B78558B7F0538FFEBA
:100D400022438F02438F018557B78558B7901A0DFC
:100D5000F0538FFC22901A0D7455B126901A0E7420
:100D6000AAB126227A3079D07820901A40B121E5B4
:100D700020F709A3DAF7227A3079D0901A40E7B148
:100D80002609A3DAF9227A8C79007820901A70B1BA
:100D900021E520F309A3DAF7227A8C7900901A7002
:100DA000E3B12609A3DAF922788076FF08763308C2
:100DB00076010876010876190876FF087609087624
:100DC000180876010876FF08080876FF08760008FC
:100DD00076FF0876FF0876FF0876FF087604087627
:100DE000FF0876FF0876FF0876FF0876FF0876286A
:100DF0000876500876040876FF0876020876FF0821
:100E000076FF0876FF0876070876FF0876FF0876F3
:100E1000FF087600087600227888E614A2E1922284
:100E2000A2E09221788474509650027650788674AD
:100E30000D965002760D863A789CE67539FFB4021D
:100E4000037539A0B4030375398278A0E6F860060B
:100E500074282409D8FCF55578988656788DE624B0
:100E6000FF922B7883E624FF922978C076000876DB
:100E700055227557007558007597DE7597AD7581C9
:100E8000B043FF8075EF0675A9001204AD7580FFB1
:100E900075F1F075A4E07580FF75D4FF759000754D
:100EA000F23F75A53F75900075D5FF75A60175A732
:100EB0002075F30175CC0175A70075E34075E2025A
:100EC0001204ADE4F8F6D8FDB1A8919ED118C2AFD6
:100ED0001203C31204621204891203C3C2AF75570E
:100EE000007558001204AD75A91375A71075C100DF
:100EF00075A700C224780979007A0030840CDAFBE7
:100F0000D9F7D8F3120456021C00302A0E12044FEF
:100F10001203CB1203CB1203CBC22A758851758EF4
:100F2000017589AA758C00758D0075C804759104CA
:100F300075D84075D90875F782759E077596027544
:100F4000DA4275DB42759B80759D0075D10C75BCCE
:100F5000B975BB1075E88075B2011203B731D17550
:100F6000E4C430270375E44CC22875A82D75E690BB
:100F700075B803D2AF758E0C755A80755910755DB2
:100F8000507560F77561E77562D67566E17563EB5C
:100F90007564CA7565A975300A1203C3E530602B04
:100FA000755AC0755908755D287560FF7561F775CC
:100FB00062EF7566E17563FB7564EB7565DA753034
:100FC0000A1203C3E5306003020EDCC0D075D010F6
:100FD000AF8ED0D0D22A753700C2AF1203F8D2AF8D
:100FE0001203C33025FAC2AF1203FED2AFE4F541BB
:100FF000F542F55EF55FF533F53BC3E53B945E40A6
:101000002C753B000533789AE67814146012782822
:1010100014600D786414600878C814600375330098
:10102000C3E53398400715337804120A5B20280380
:10103000120A8E30250CE5317003020EDC1209E530
:1010400080B81203C32025B2C2AF1204ADD2AFE400
:10105000F522F523F5381203B775E89030EDFD85DC
:10106000BD54E5BE70037554007553081205047530
:101070005308C2AF79848752855250855251D2AFFE
:1010800075A71075C13075A70075A903D224C3E5F3
:101090005A33F55AC3E55D33F55DC3E55933F55968
:1010A000E560C563F560E561C564F561E562C56548
:1010B000F56275663CA2219212302204A226921299
:1010C000D210D21175340075360C12098F1209B086
:1010D0001205691205701205691205701205691270
:1010E00007E41208C412090B1205701207D9120482
:1010F000BD1208C412092C1205701207E41208C4AC
:1011000012094D1205701207D91208C412096E1285
:1011100005701207E41208C412098F12057075E8F1
:10112000901207D91208C41209B0120504120570F2
:10113000301017855250C3E5349418500530259F60
:1011400021C4C210855250855251301118201D15EE
:10115000E536147006C211D21C8084F536202203B5
:1011600020256101DF753700D21B20220F78FA7924
:10117000A4E760027803C3E532985048E531604443
:10118000302217201205202607800F302602800A01
:10119000201D07D21D855250210678F0301D05858F
:1011A00052507820C3E54298500201DF301D15C22D
:1011B0001DA2269212D21175361285525001DF20DF
:1011C0001B020537C2AF1204AD75220075230075EE
:1011D000A91375A71075C10075A700C224D3E55ADD
:1011E00013F55AC3E55D13F55DC3E55913F559E5EC
:1011F00060C563F560E561C564F561E562C565F5E7
:10120000627566E1D2AF1203C31204AD202513C389
:10121000E537940450020148C2AF12045BD2AF021A
:101220000FCB75370078A4E66006D293D294D2959E
:03123000020FEDBD
:1019FD00020E72000DCBFF33010119FF091801FF13
:101A0D0055AAFF00FFFFFFFF04FFFFFFFFFF285058
:0D1A1D0004FF02FFFFFF07FFFFFF0000FFB7
:101A4000234A5F485F32302320202020202020209E
:101A500023424C48454C492445464D3842323123B7
:101A6000426C75656A6179202854455354292020B9
:101A7000023A042034420D00452D0D0034420D0081
:101A80004E27D300452DD019341900000000000066
:101A90000000000000000000000000000000000046
:101AA0000000000000000000000000000000000036
:101AB0000000000000000000000000000000000026
:101AC0000000000000000000000000000000000016
:101AD0000000000000000000000000000000000006
:101AE00000000000000000000000000000000000F6
:011AF000FFF6
:101C0000C2AFC2D37597DE7597AD7581C075A90057
:101C100043FF80752438752503B1DB7529A5752A26
:101C2000F143F11053A4EFD28475D4FF75E3407DE6
:101C3000FA780379E67C10752200752300901DE880
:101C40007B0675249875250130840281482084081C
:101C5000D8FBD9F9DCF781BA308408D8FBD9F9DC94
:101C6000F781BAB19BE493A3C39A6004DDC381BA40
:101C7000DBDBB18D600281317B08E493FAA3B16EA6
:101C8000DBF87A30B16E752200752300B18DEAFC65
:101C9000EBFDC3ED94FE400EB18D8A278B28ED300D
:101CA000E0048A828B83B18D7AC270D8C3ED94FE32
:101CB000601950CEBD0029EC600F7520007521FF22
:101CC000752900752A000200008100A827A92808AC
:101CD00009D804D90281DDB191EAF281D10D81A642
:101CE000C3ED94035051EDA2E092007AC5C3E582A2
:101CF0009400E583941C508C200010438F02438F86
:101D0000018529B7852AB7F0300027A827A9280818
:101D100009438F01538FFDD804D902A132C3E58353
:101D2000941C4003A3A117E28529B7852AB7F0A325
:101D3000A117538FFC81827AC1BD030CE493A3FAEF
:101D4000B152DCF8B14A81828184AA22AB23B16E00
:101D5000EBFAEA6222752608C3E52313F523E52290
:101D600013F52250066323A0632201D526EAB1DBD6
:101D7000B1DB75260AEAF4200102D284300102C2E6
:101D800084B1DBC3134002C201D526EB22B191EA34
:101D9000FB208402A191308402A196752608AE240E
:101DA000AF25C3EF13FFEE13FEB1DFB1DBC3EA13C0
:101DB0003084024480FA30E703632201C3E5231331
:101DC000F523E52213F52250066323A0632201D5F3
:101DD00026D9E52265236523F52222AE24AF250E00
:101DE0000FDEFEDFFCD20122424C48656C693437BD
:061DF0003164E8B20601B7
:00000001FF
