:060000000219FD0203637A
:03000B0002008070
:030013000203766F
:03001B000200B62A
:03002B0002032CA1
:03005B0002038518
:0300730002035035
:10008000C0D075D01018B8CF0408208407B2848679
:100090008AD0D03253A4EFD284C2A98F8E7589AA98
:1000A000C289C28B758A00D2A8D2AA43F74043E620
:1000B00010C228D0D032C2A8C28E855A8BC0D0754B
:1000C000D008C0E0C0F0C2CAA9CCAACDD2CAC3E948
:1000D000955BF9EA955C7049C3E9955D4043955D90
:1000E000503FB8103C7800A9597D00E2FEC39DC383
:1000F00099402E99EC33FC08E2FDC39EC399402140
:1001000099EC33FC08E2FEC39DC399401499EC338B
:10011000FC08E2FDC39EC399400799EC33FC0880BC
:1001200002806AE2FEC39DC399406299EB33FB08EB
:10013000E2FDC39EC399405599EB33FB08E2FEC331
:100140009DC399404899EB33FB08E2FDC39EC399D8
:10015000403B99EB33FB08E2FEC39DC399402E99C7
:10016000EB33FB08E2FDC39EC399402199EB33FBBF
:1001700008E2FEC39DC399401499EB33FB08E2FDEE
:10018000C39EC399400799EB33FB08801E0530E5F9
:100190003070021530C3E5309432400AD225755EC6
:1001A00000755F00611675310A6116E2FEC39DC3DA
:1001B0009940DA99EA33FA08E2FDC39EC39940CD2B
:1001C00099EA33FA08E2FEC39DC39940C099EA3325
:1001D000FA08E2FDC39EC39940B399EA33FA08EBEB
:1001E000C46B6C6A302701F4540F70A1C3EBF4FAAE
:1001F0009460FBECF4540F9400FC5018EA7C007BF4
:1002000000600CC3135007B55E05055F8006E4F57A
:100210005E755F0030221EC3EB94D0F5F0EC9407BE
:10022000C2264005ABF0FCD226202102B226C3EB49
:1002300033FBEC33FCEB54F04CC475F00584FAEC62
:1002400013FCEB132AFBEC3400FC30E3047BFF7C53
:1002500007201C27301124EC700C798187F0C3EB48
:1002600095F05002ABF0E537601175F028A42BFB38
:10027000EC3400FC30E3047BFF7C07EB54F84CC407
:1002800023F97007EB7004D2258005753200C22572
:10029000E53060021530C3E550FD95514002AD5187
:1002A000C3ED995008ED75F008A4FBACF08CF0EBB1
:1002B000A2F013A2F113F4F9EC0303F45401FA30A1
:1002C000291CEBF4540324C0F8E623F630E00FE9D0
:1002D0002401F97009EA3400FA30E1021A19302BCE
:1002E0000BC3E99432FBEA9400FC5003E4FBFC8965
:1002F0004C8A4D8B4E8C4F75310A30271930281699
:10030000758E017589A2D28443A410780085668A0F
:10031000C28DD2A9800F7800758A00D2A8D2AA43D4
:10032000F74043E610D0F0D0E0D0D032C0E0C2CFEA
:10033000053B302403102315D223E5316005153128
:1003400030250AD2250532E53270021532D0E0326E
:10035000C2AF53E67F53917F7592FA7593FFC2182F
:10036000D2AF32C0E0E58A855A8BC0D075D008F292
:1003700008D0D0D0E032C2AAD28EC2CA85CC5B856A
:10038000CD5CD2CA32C2AFC0E0E5F9E5FA301F0554
:1003900020E123800330E11E20E01B854CFB854DCE
:1003A000FC854EE9854FEAD21FE54D20E002C21FD1
:1003B00053F7BF53E6EF53F7DFD0E0D2AF32790106
:1003C000801479058010790A800C7964800879C8D6
:1003D000800479FA80007817E4D5E0FDD8FAD9F6E0
:1003E000227A427B3580247A2D7B4D801E7A267BB3
:1003F0005C80187A197B8C80127A147BAF800C7A1F
:10040000427B1E80067A2D7B2C8000E556700122EF
:100410007902E4C294D5E0FDD291D5E0FDC291D538
:10042000E0FDD294D5E0FDE920E002D29030E00278
:10043000D292E556D5E0FDE920E002C29030E0021C
:10044000C2927496D5E0FDD9C9EA78C8D8FED5E045
:10045000F9DBBDC2942271E171E771ED2291057162
:10046000E12271ED71E771E122901A70E493F4607A
:100470001B7C3E901A74E493A3FB6010E493FA6033
:1004800004910B8004EBF971D6A3DCEA901AF022F8
:1004900078A5E6F95403C2857002D285E9540CC2EE
:1004A000867002D286E95430C2877002D287E9543E
:1004B000C0700022C290C291C292C293C294C295EF
:1004C00075D5FF22201E2E78FF201026E53A6022E7
:1004D000E542601E74FF301102747F8542F084850E
:1004E0003AF0A4F8C5F0600278FFC3E895525002D4
:1004F000A852885122C3E54194A0E5429400E551F9
:100500005003148001046002F551220553C3E553E2
:100510009408405130EDF4AABDABBE75530079A0EC
:10052000E76041EB7006E5546018800CC3EA95540F
:10053000600EE5545005600A1480070460FA8002DA
:10054000E554F554C39555401B7550C0C394044001
:1005500013755080C39404400B755040C3940440FD
:100560000375500022E5502410500274FFF550220C
:100570007541007542F022C2AFC2CAA8CCA9CDAA6B
:100580003B30CF010AD2CAD2AFC3EA13FAE913F95A
:10059000E813F8AB3CAC3D883C893DC3E89BF8E9E7
:1005A0009C201008547FF9301E42C18EAD3E8A3E19
:1005B000F9EA9D547FFA600678FF79FF8013AE3F19
:1005C000AF408B3F8C40A83CA93DC3E89EF8E99F13
:1005D000F9C3E54213FBE54113FAE82AF541E93B8B
:1005E000F54250067541FF7542FF804DAA41AB426E
:1005F000AC41AD427E047F02C3EB9404400D1E1F4C
:10060000C3EB940840052011021E1FC3ED13FDEC3F
:1006100013FCDEF7C3EA9CFAEB9DFBEF6009C3E92C
:1006200013F9E813F8DFF7EA28FAEB39FB8A418B74
:100630004250067BFF8B418B42C3EB94025002D2A7
:100640001E3010047F03801C7892E6FFC3E53894C7
:100650008240110FC3E53894A040010FC3EF940608
:1006600040027F057E02E542C4540FF9E542C454BE
:10067000F0F8E541C4540F28F8C3E89EFAE9940065
:10068000FB40057050EA704D7A017B008047AA411B
:10069000AB42EBC4FEEAC4540F4EFCC3EA9CFAEB37
:1006A0009400FBC3E813C313F8EA28FAEB3400FB09
:1006B0008A418B42C394024002C21E7802EBC4FE00
:1006C0007B00EAC4540F4EFAC398FA400270027AD3
:1006D000017892E6FF202806301808120A95301893
:1006E0000280FB854892854993D21843E680C3E493
:1006F0009AF8E49BF9C3E833F8E933F9201E67E878
:10070000FAE9FBD3E913FDE813FC88488949C3EFF4
:100710009403602FEF20E00CE82CF8E93DF9ECFAA7
:10072000EDFB800BE8D338F8E939F97AFF7BFFC39A
:10073000EF9403400E8A4A8B4B884489458C468D42
:10074000478056884A894B8A448B458C468D473072
:100750001047754AF0754BFF7546F07547FF7548B1
:10076000F07549FF8033E8FAD313FC8848C3EF944F
:10077000036020EF20E007E82CF8ECFA8007E82877
:100780002401F87AFFC3EF940340088A4A88448C16
:10079000468006884A8A448C46202806301808126B
:1007A0000A9530180280FB753502D21843E6803076
:1007B000112DA841A942C3E913F9E813F830100438
:1007C000E92440F9C2AF53E67F759100C3E498F580
:1007D00094E499F595759104D21843E680D2AF223E
:1007E00075F000301D0E75F040800975F040301D29
:1007F0000375F000D2197543007A027B02201E1D9A
:10080000301102C2193010067A367B36800F7B28F1
:10081000E542700104FAC3942840027A2820181196
:10082000E543600D301003D53504D21A80661207F7
:10083000AA0543E59B5440B5F00DE53460BB201993
:10084000B8DADAC21A804D20100B2019110AC3EA57
:100850009B40CA80A40AC3EA9B40011A80BFC21908
:1008600053E67F759100301E107594007595F075F4
:100870009104D21843E6808080E5427EFFC3334076
:1008800009C3334005C3334001FEC3E49E759400A1
:10089000F59580DBC2AF53E67F854492854593751D
:1008A0009100854A94854B95759104D21843E68052
:1008B000D2AF201013301A1220110F201D0C201956
:1008C00009158115810211CC053422E53875F00730
:1008D000A430190105F0A2F013A2F113A2F213F54E
:1008E00038C394785003753878C3E5389539400992
:1008F000C290C291C29275D5FF20280530180751C9
:100900009530180280FB854692854793D21843E6BE
:10091000802220120FC2AFC294D29375D5DBD2AF22
:10092000759F2322C2AFC294D29575D5F6D2AF750A
:100930009F232220120FC2AFC29275D5EDD293D25F
:10094000AF759F1322C2AFC29075D5EDD295D2AFCD
:10095000759F032220120FC2AFC293D29575D5EDB9
:10096000D2AF759F0322C2AFC295D29375D5EDD297
:10097000AF759F132220120FC2AFC29175D5F6D268
:1009800095D2AF759F2322C2AFC29175D5DBD293AA
:10099000D2AF759F232220120FC2AFC295D2947599
:1009A000D5F6D2AF759F1322C2AFC293D29475D53C
:1009B000DBD2AF759F032220120FC2AFC29075D554
:1009C000DBD294D2AF759F0322C2AFC29275D5F627
:1009D000D294D2AF759F13227432A2844003208434
:1009E000F750033084F2D5E0F3922722E55E607180
:1009F000F8C39406500751621203CE805EC3E55FD0
:100A00009406405DB80704C2218050B80804D22182
:100A10008049B80904C2228042B80A04D222803B2D
:100A2000B8140A7988E714A2E09221802EB8150B39
:100A30007988E714A2E0B392218020B80C1DE4A2CB
:100A40002192E0A22292E1047988F77557A57558A2
:100A5000F191EB755700755800D2AF755E00755F68
:100A60000022C2AF1204B479998756B80105120367
:100A7000E1801BB802051203E78013B803051203D7
:100A8000ED800BB804051203F380031203F9799883
:100A90008756D2AF22C0D075D010BC0029C2AF8516
:100AA0004126854227D2AFE526A23813F9A2391391
:100AB00029F526E52703C2E7F903C2E739F5270C34
:100AC000201803D0D022BC0115E5277052E526700E
:100AD0000675270F7526FF0C201803D0D022BC0204
:100AE00015E526C465266527F478D0A660719C0CB0
:100AF000201803D0D022BC030BE526719C0C2018D3
:100B000003D0D022BC040CE526C4719C0C20180331
:100B1000D0D022E527719C087C00D0D0D22822209A
:100B2000E71620E61D20E52720E43420E34120E2FB
:100B30005020E15CE52641D7A23733F52675270F13
:100B400041D7A23733A23633F52675270D41D7A2F8
:100B50003733A23633A23533F52675270B41D7E557
:100B60002654F0C23C4527C4F52675270941D7E530
:100B700026A23813A23913A23A13F5267527074186
:100B8000D7E526A23813A23913F52675270541D7D4
:100B9000E526A23813F52675270341D7540F239075
:100BA0000BA37361C361CD61DA61EB61F5810281F1
:100BB0000C8120812D8141814881598163817A8115
:100BC00084819808A66208A66008A6602208A6602C
:100BD00008A66108A66008A6602286F0E561B5F067
:100BE00002E562F608A66208A6602208A66008A6CA
:100BF0006208A6602208A66108A66008A66008A68A
:100C0000602208A66108A66108A6602286F0E56158
:100C1000B5F002E562F608A66008A66108A66022A3
:100C200008A66008A66008A66108A6602286F0E50E
:100C300061B5F002E562F608A66108A66008A66044
:100C40002208A66208A6612286F0E561B5F002E5F9
:100C500062F608A66108A6612208A66008A66108D7
:100C6000A6612286F0E561B5F002E562F608A660AD
:100C700008A66008A66008A6602208A66108A6600B
:100C800008A6612286F0E561B5F002E562F608A6E5
:100C90006008A66008A6612208A66008A66008A6EB
:100CA0006008A66122901A0D7820B128E520B4557D
:100CB0000AA3B128E520B4AA0280127557A5755879
:100CC000F1B1AF91EB755700755800801D901A0374
:100CD00078807B0AB128A308DBFA901A0F788C7B06
:100CE0001AB128A308DBFA901A2922C2AFB16BB15E
:100CF0008DB148901A007400B12DA3740DB12DA3CD
:100D000074CBB12D901A0378807B0AB12CA308DB39
:100D1000FA901A0F788C7B1AB12CA308DBFAB17EFB
:100D2000B1A0B15C901A2922E493F622E6438F0128
:100D3000538FFDFFC3E583941C400122EF8557B715
:100D40008558B7F0538FFE22438F02438F0185579A
:100D5000B78558B7901A0DF0538FFC22901A0D7476
:100D600055B12D901A0E74AAB12D227A3079D0780F
:100D700020901A40B128E520F709A3DAF7227A304B
:100D800079D0901A40E7B12D09A3DAF9227A8C794B
:100D9000007820901A70B128E520F309A3DAF72231
:100DA0007A8C7900901A70E3B12D09A3DAF92278D0
:100DB0008076FF08763308760108760108761908F0
:100DC00076FF0876090876300876010876FF08086D
:100DD0000876FF0876000876FF0876FF0876FF0899
:100DE00076FF0876040876FF0876FF0876FF087617
:100DF000FF0876FF0876280876500876040876FF04
:100E00000876020876FF0876FF0876FF087607085E
:100E100076FF0876FF0876FF0876000876002278CD
:100E200088E614A2E19222A2E0922178847450967E
:100E3000500276507886740D965002760D863A7878
:100E40009CE67539FFB402037539A0B40303753904
:100E50008278A0E6F8600674282409D8FCF5557855
:100E6000988656788DE624FF922B7883E624FF92AD
:100E70002978C076000876110876550876772275AD
:100E800057007558007597DE7597AD7581B043FFB3
:100E90008075EF0675A9001204B47580FF75F1F036
:100EA00075A4E07580FF75D4FF75900075F23F75ED
:100EB000A53F75900075D5FF75A60175A72075F340
:100EC0000175CC0175A70075E34075E2021204B408
:100ED000E4F8F6D8FDB1AF91A5D11FC2AF1203CA95
:100EE0001204691204901203CAC2AF7557007558F4
:100EF000001204B475A91375A71075C10075A70079
:100F0000C224780979007A0030840CDAFBD9F7D84A
:100F1000F312045D021C00302A0E1204561203D292
:100F20001203D21203D2C22A758851758E017589B7
:100F3000AA758C00758D0075C80475910475D8402C
:100F400075D90875F781759E0775960275DA427531
:100F5000DB42759B80759D0075D10C75BCB975BB66
:100F60001075E88075B2011203BE31D875E4C43043
:100F7000270375E44CC22875A82D75E69075B80353
:100F8000D2AF758E0C755A80755910755D507560AD
:100F9000F77561E77562D67566E17563EB7564CACE
:100FA0007565A975300A1203CAE530602B755AC001
:100FB000755908755D287560FF7561F77562EF7585
:100FC00066E17563FB7564EB7565DA75300A1203CB
:100FD000CAE5306003020EE9C0D075D010AF8ED0E4
:100FE000D0D22A753700C2AF1203FFD2AF1203CAA4
:100FF0003025FAC2AF120405D2AFE4F541F542F54F
:101000005EF55FF533F53BC3E53B945E402C753BE5
:10101000000533789AE67814146012782814600D6D
:10102000786414600878C8146003753300C3E5332E
:1010300098400715337804120A62202803120A9593
:1010400030250CE5317003020EE91209EC80B8126C
:1010500003CA2025B2C2AF1204B4D2AFE4F522F520
:1010600023F5381203BE75E89030EDFD85BD54E5DB
:10107000BE700375540075530812050B755308C2F2
:10108000AF79848752855250855251D2AF75A710DF
:1010900075C13075A70075A903D224C3E55A33F58D
:1010A0005AC3E55D33F55DC3E55933F559E560C5D0
:1010B00063F560E561C564F561E562C565F5627576
:1010C000663CA2219212302204A2269212D210D2A1
:1010D0001175340075360C1209961209B712057095
:1010E0001205771205701205771205701207EB12C0
:1010F00008CB1209121205771207E01204C4120875
:10110000CB1209331205771207EB1208CB120954E0
:101110001205771207E01208CB1209751205771233
:1011200007EB1208CB12099612057775E8901207A3
:10113000E01208CB1209B712050B12057730101711
:10114000855250C3E5349418500530259F21D1C2F3
:1011500010855250855251301118201D15E5361456
:101160007006C211D21C8084F5362022032025612E
:1011700001EC753700D21B20220F78FA79A4E760C2
:10118000027803C3E532985048E5316044302217B5
:10119000201205202607800F302602800A201D0716
:1011A000D21D855250211378F0301D05855250789C
:1011B00020C3E54298500201EC301D15C21DA22645
:1011C0009212D21175361285525001EC201B020585
:1011D00037C2AF1204B475220075230075A91375C8
:1011E000A71075C10075A700C224D3E55A13F55A9C
:1011F000C3E55D13F55DC3E55913F559E560C563B6
:10120000F560E561C564F561E562C565F562756621
:10121000E1D2AF1203CA1204B4202513C3E53794F8
:101220000450020155C2AF120462D2AF020FD8754A
:10123000370078A4E66006D293D294D295020FFAD2
:1019FD00020E7F000DCBFF33010119FF093001FFEE
:101A0D0055AAFF00FFFFFFFF04FFFFFFFFFF285058
:0D1A1D0004FF02FFFFFF07FFFFFF0000FFB7
:101A4000234A5F485F35302320202020202020209B
:101A500023424C48454C492445464D3842323123B7
:101A6000426C75656A6179202854455354292020B9
:101A7000023A042034420D00452D0D0034420D0081
:101A80004E27D300452DD019341900000000000066
:101A90000000000000000000000000000000000046
:101AA0000000000000000000000000000000000036
:101AB0000000000000000000000000000000000026
:101AC0000000000000000000000000000000000016
:101AD0000000000000000000000000000000000006
:101AE00000000000000000000000000000000000F6
:011AF000FFF6
:101C0000C2AFC2D37597DE7597AD7581C075A90057
:101C100043FF80752438752503B1DB7529A5752A26
:101C2000F143F11053A4EFD28475D4FF75E3407DE6
:101C3000FA780379E67C10752200752300901DE880
:101C40007B0675249875250130840281482084081C
:101C5000D8FBD9F9DCF781BA308408D8FBD9F9DC94
:101C6000F781BAB19BE493A3C39A6004DDC381BA40
:101C7000DBDBB18D600281317B08E493FAA3B16EA6
:101C8000DBF87A30B16E752200752300B18DEAFC65
:101C9000EBFDC3ED94FE400EB18D8A278B28ED300D
:101CA000E0048A828B83B18D7AC270D8C3ED94FE32
:101CB000601950CEBD0029EC600F7520007521FF22
:101CC000752900752A000200008100A827A92808AC
:101CD00009D804D90281DDB191EAF281D10D81A642
:101CE000C3ED94035051EDA2E092007AC5C3E582A2
:101CF0009400E583941C508C200010438F02438F86
:101D0000018529B7852AB7F0300027A827A9280818
:101D100009438F01538FFDD804D902A132C3E58353
:101D2000941C4003A3A117E28529B7852AB7F0A325
:101D3000A117538FFC81827AC1BD030CE493A3FAEF
:101D4000B152DCF8B14A81828184AA22AB23B16E00
:101D5000EBFAEA6222752608C3E52313F523E52290
:101D600013F52250066323A0632201D526EAB1DBD6
:101D7000B1DB75260AEAF4200102D284300102C2E6
:101D800084B1DBC3134002C201D526EB22B191EA34
:101D9000FB208402A191308402A196752608AE240E
:101DA000AF25C3EF13FFEE13FEB1DFB1DBC3EA13C0
:101DB0003084024480FA30E703632201C3E5231331
:101DC000F523E52213F52250066323A0632201D5F3
:101DD00026D9E52265236523F52222AE24AF250E00
:101DE0000FDEFEDFFCD20122424C48656C693437BD
:061DF0003164E8B20601B7
:00000001FF
