:060000000219FD0203637A
:03000B0002008070
:030013000203766F
:03001B000200B62A
:03002B0002032CA1
:03005B0002038518
:0300730002035035
:10008000C0D075D01018B8CF0408208507B2858677
:100090008AD0D03253A4DFD285C2A98F8E7589AAA7
:1000A000C289C28B758A00D2A8D2AA43F74043E620
:1000B00010C228D0D032C2A8C28E855A8BC0D0754B
:1000C000D008C0E0C0F0C2CAA9CCAACDD2CAC3E948
:1000D000955BF9EA955C7049C3E9955D4043955D90
:1000E000503FB8103C7800A9597D00E2FEC39DC383
:1000F00099402E99EC33FC08E2FDC39EC399402140
:1001000099EC33FC08E2FEC39DC399401499EC338B
:10011000FC08E2FDC39EC399400799EC33FC0880BC
:1001200002806AE2FEC39DC399406299EB33FB08EB
:10013000E2FDC39EC399405599EB33FB08E2FEC331
:100140009DC399404899EB33FB08E2FDC39EC399D8
:10015000403B99EB33FB08E2FEC39DC399402E99C7
:10016000EB33FB08E2FDC39EC399402199EB33FBBF
:1001700008E2FEC39DC399401499EB33FB08E2FDEE
:10018000C39EC399400799EB33FB08801E0530E5F9
:100190003070021530C3E5309432400AD225755EC6
:1001A00000755F00611675310A6116E2FEC39DC3DA
:1001B0009940DA99EA33FA08E2FDC39EC39940CD2B
:1001C00099EA33FA08E2FEC39DC39940C099EA3325
:1001D000FA08E2FDC39EC39940B399EA33FA08EBEB
:1001E000C46B6C6A302701F4540F70A1C3EBF4FAAE
:1001F0009460FBECF4540F9400FC5018EA7C007BF4
:1002000000600CC3135007B55E05055F8006E4F57A
:100210005E755F0030221EC3EB94D0F5F0EC9407BE
:10022000C2264005ABF0FCD226202102B226C3EB49
:1002300033FBEC33FCEB54F04CC475F00584FAEC62
:1002400013FCEB132AFBEC3400FC30E3047BFF7C53
:1002500007201C27301124EC700C798187F0C3EB48
:1002600095F05002ABF0E537601175F028A42BFB38
:10027000EC3400FC30E3047BFF7C07EB54F84CC407
:1002800023F97007EB7004D2258005753200C22572
:10029000E53060021530C3E550FD95514002AD5187
:1002A000C3ED995008ED75F008A4FBACF08CF0EBB1
:1002B000A2F013A2F113F4F9EC0303F45401FA30A1
:1002C000291CEBF4540324C0F8E623F630E00FE9D0
:1002D0002401F97009EA3400FA30E1021A19302BCE
:1002E0000BC3E9941EFBEA9400FC5003E4FBFC8979
:1002F0004C8A4D8B4E8C4F75310A30271930281699
:10030000758E017589A2D28543A420780085668AFE
:10031000C28DD2A9800F7800758A00D2A8D2AA43D4
:10032000F74043E610D0F0D0E0D0D032C0E0C2CFEA
:10033000053B302403102315D223E5316005153128
:1003400030250AD2250532E53270021532D0E0326E
:10035000C2AF53E67F53917F7592FA7593FFC2182F
:10036000D2AF32C0E0E58A855A8BC0D075D008F292
:1003700008D0D0D0E032C2AAD28EC2CA85CC5B856A
:10038000CD5CD2CA32C2AFC0E0E5F9E5FA301F0554
:1003900020E123800330E11E20E01B854CFB854DCE
:1003A000FC854EE9854FEAD21FE54D20E002C21FD1
:1003B00053F7BF53E6EF53F7DFD0E0D2AF32790106
:1003C000801479058010790A800C7964800879C8D6
:1003D000800479FA80007817E4D5E0FDD8FAD9F6E0
:1003E000227A427B3580247A2D7B4D801E7A267BB3
:1003F0005C80187A197B8C80127A147BAF800C7A1F
:10040000427B1E80067A2D7B2C8000E556700122EF
:100410007902E4C295D5E0FDD292D5E0FDC292D535
:10042000E0FDD295D5E0FDE920E002D29130E00276
:10043000D293E556D5E0FDE920E002C29130E0021A
:10044000C2937496D5E0FDD9C9EA78C8D8FED5E044
:10045000F9DBBDC2952271E171E771ED2291057161
:10046000E12271ED71E771E122901A70E493F4607A
:100470001B7C3E901A74E493A3FB6010E493FA6033
:1004800004910B8004EBF971D6A3DCEA901AF022F8
:1004900078A5E6F954037000E9540C7000E9543073
:1004A0007000E954C0700022C291C292C293C294FB
:1004B000C295C29675D5FF22201E2E78FF201026E9
:1004C000E53A6022E542601E74FF301102747F85B8
:1004D00042F084853AF0A4F8C5F0600278FFC3E8E2
:1004E00095525002A852885122C3E54194A0E5429A
:1004F0009400E5515003148001046002F551220577
:1005000053C3E5539408405130EDF4AABDABBE751A
:10051000530079A0E76041EB7006E5546018800C49
:10052000C3EA9554600EE5545005600A1480070430
:1005300060FA8002E554F554C39555401B7550C0D0
:10054000C394044013755080C39404400B7550400D
:10055000C39404400375500022E5502410500274E7
:10056000FFF550227541007542F022C2AFC2CAA801
:10057000CCA9CDAA3B30CF010AD2CAD2AFC3EA136D
:10058000FAE913F9E813F8AB3CAC3D883C893DC36C
:10059000E89BF8E99C201008547FF9301E42C18284
:1005A000AD3E8A3EF9EA9D547FFA600678FF79FFF6
:1005B0008013AE3FAF408B3F8C40A83CA93DC3E8C1
:1005C0009EF8E99FF9C3E54213FBE54113FAE82AD7
:1005D000F541E93BF54250067541FF7542FF804DFC
:1005E000AA41AB42AC41AD427E047F02C3EB94040E
:1005F000400D1E1FC3EB940840052011021E1FC3AF
:10060000ED13FDEC13FCDEF7C3EA9CFAEB9DFBEF68
:100610006009C3E913F9E813F8DFF7EA28FAEB39C0
:10062000FB8A418B4250067BFF8B418B42C3EB948C
:10063000025002D21E3010047F03801C7892E6FF25
:10064000C3E538948240110FC3E53894A040010FF0
:10065000C3EF940640027F057E02E542C4540FF9C1
:10066000E542C454F0F8E541C4540F28F8C3E89EAD
:10067000FAE99400FB40057050EA704D7A017B0066
:100680008047AA41AB42EBC4FEEAC4540F4EFCC300
:10069000EA9CFAEB9400FBC3E813C313F8EA28FAC8
:1006A000EB3400FB8A418B42C394024002C21E78A5
:1006B00002EBC4FE7B00EAC4540F4EFAC398FA4022
:1006C0000270027A017892E6FF202806301808129C
:1006D0000A8930180280FB854892854993D21843D5
:1006E000E680C3E49AF8E49BF9C3E833F8E933F908
:1006F000201E67E8FAE9FBD3E913FDE813FC8848FC
:100700008949C3EF9403602FEF20E00CE82CF8E94F
:100710003DF9ECFAEDFB800BE8D338F8E939F97ACA
:10072000FF7BFFC3EF9403400E8A4A8B4B884489BA
:10073000458C468D478056884A894B8A448B458C28
:10074000468D47301047754AF0754BFF7546F0757A
:1007500047FF7548F07549FF8033E8FAD313FC88EA
:1007600048C3EF94036020EF20E007E82CF8ECFA90
:100770008007E8282401F87AFFC3EF940340088A31
:100780004A88448C468006884A8A448C462028063B
:10079000301808120A8930180280FB753502D21809
:1007A00043E68030112DA841A942C3E913F9E813AB
:1007B000F8301004E92440F9C2AF53E67F75910088
:1007C000C3E498F594E499F595759104D21843E63D
:1007D00080D2AF2275F000301D0E75F04080097593
:1007E000F040301D0375F000D2197543007A027B8A
:1007F00002201E1D301102C2193010067A367B36D7
:10080000800F7B28E542700104FAC3942840027AE5
:1008100028201811E543600D301003D53504D21A95
:10082000806612079E0543E59B5440B5F00DE53404
:1008300060BB2019B8DADAC21A804D20100B2019DB
:10084000110AC3EA9B40CA80A40AC3EA9B40011A6A
:1008500080BFC21953E67F759100301E1075940059
:100860007595F0759104D21843E6808080E5427E4C
:10087000FFC3334009C3334005C3334001FEC3E423
:100880009E759400F59580DBC2AF53E67F85449258
:10089000854593759100854A94854B95759104D251
:1008A0001843E680D2AF201013301A1220110F2007
:1008B0001D0C201909158115810211C0053422E58E
:1008C0003875F007A430190105F0A2F013A2F11356
:1008D000A2F213F538C394785003753878C3E5381D
:1008E00095394009C291C292C29375D5FF2028055F
:1008F000301807518930180280FB8546928547934E
:10090000D21843E6802220120FC2AFC295D294754E
:10091000D5B7D2AF759F2322C2AFC295D29675D5F7
:10092000EDD2AF759F232220120FC2AFC29375D5AF
:10093000DBD294D2AF759F1322C2AFC29175D5DBC3
:10094000D296D2AF759F432220120FC2AFC294D26B
:100950009675D5DBD2AF759F4322C2AFC296D294B3
:1009600075D5DBD2AF759F132220120FC2AFC29292
:1009700075D5EDD296D2AF759F2322C2AFC29275C4
:10098000D5B7D294D2AF759F232220120FC2AFC227
:1009900096D29575D5EDD2AF759F1322C2AFC29492
:1009A000D29575D5B7D2AF759F432220120FC2AF33
:1009B000C29175D5B7D295D2AF759F4322C2AFC24F
:1009C0009375D5EDD295D2AF759F13227432A2855F
:1009D00040032085F750033085F2D5E0F3922722BB
:1009E000E55E6071F8C39406500751561203CE803D
:1009F0005EC3E55F9406405DB80704C2218050B82D
:100A00000804D2218049B80904C2228042B80A04ED
:100A1000D222803BB8140A7988E714A2E0922180A0
:100A20002EB8150B7988E714A2E0B392218020B884
:100A30000C1DE4A22192E0A22292E1047988F775CC
:100A400057A57558F191DF755700755800D2AF75ED
:100A50005E00755F0022C2AF1204A879998756B86C
:100A600001051203E1801BB802051203E78013B8E9
:100A700003051203ED800BB804051203F380031283
:100A800003F979988756D2AF22C0D075D010BC0038
:100A900029C2AF854126854227D2AFE526A2381369
:100AA000F9A2391329F526E52703C2E7F903C2E7BE
:100AB00039F5270C201803D0D022BC0115E527708A
:100AC00052E526700675270F7526FF0C201803D0F7
:100AD000D022BC0215E526C465266527F478D0A689
:100AE0006071900C201803D0D022BC030BE5267156
:100AF000900C201803D0D022BC040CE526C47190C1
:100B00000C201803D0D022E5277190087C00D0D0AB
:100B1000D2282220E71620E61D20E52720E43420F5
:100B2000E34120E25020E15CE52641CBA23733F5DA
:100B30002675270F41CBA23733A23633F52675270A
:100B40000D41CBA23733A23633A23533F5267527B4
:100B50000B41CBE52654F0C23C4527C4F52675274A
:100B60000941CBE526A23813A23913A23A13F52680
:100B700075270741CBE526A23813A23913F5267550
:100B8000270541CBE526A23813F52675270341CB6F
:100B9000540F23900B977361B761C161CE61DF6120
:100BA000E961F68100811481218135813C814D818B
:100BB00057816E8178818C08A66208A66008A660BD
:100BC0002208A66008A66108A66008A6602286F032
:100BD000E561B5F002E562F608A66208A6602208A3
:100BE000A66008A66208A6602208A66108A660089A
:100BF000A66008A6602208A66108A66108A6602271
:100C000086F0E561B5F002E562F608A66008A66127
:100C100008A6602208A66008A66008A66108A6606B
:100C20002286F0E561B5F002E562F608A66108A645
:100C30006008A6602208A66208A6612286F0E56127
:100C4000B5F002E562F608A66108A6612208A66072
:100C500008A66108A6612286F0E561B5F002E562AA
:100C6000F608A66008A66008A66008A6602208A686
:100C70006108A66008A6612286F0E561B5F002E58C
:100C800062F608A66008A66008A6612208A66008A9
:100C9000A66008A66008A66122901A0D7820B11CF3
:100CA000E520B4550AA3B11CE520B4AA0280127550
:100CB00057A57558F1B1A391DF755700755800809D
:100CC0001D901A0378807B0AB11CA308DBFA901AE6
:100CD0000F788C7B1AB11CA308DBFA901A2922C268
:100CE000AFB15FB181B13C901A007400B121A3741F
:100CF0000DB121A374CBB121901A0378807B0AB186
:100D000020A308DBFA901A0F788C7B1AB120A30875
:100D1000DBFAB172B194B150901A2922E493F62211
:100D2000E6438F01538FFDFFC3E583941C400122EE
:100D3000EF8557B78558B7F0538FFE22438F024394
:100D40008F018557B78558B7901A0DF0538FFC2245
:100D5000901A0D7455B121901A0E74AAB121227AFD
:100D60003079D07820901A40B11CE520F709A3DA39
:100D7000F7227A3079D0901A40E7B12109A3DAF945
:100D8000227A8C79007820901A70B11CE520F30942
:100D9000A3DAF7227A8C7900901A70E3B12109A3C3
:100DA000DAF922788076FF08763308760108760132
:100DB0000876190876FF0876090876300876010863
:100DC00076FF08080876FF0876000876FF0876FFA9
:100DD0000876FF0876FF0876040876FF0876FF0895
:100DE00076FF0876FF0876FF0876280876500876A2
:100DF000040876FF0876020876FF0876FF0876FF7B
:100E00000876070876FF0876FF0876FF0876000860
:100E10007600227888E614A2E19222A2E09221785C
:100E200084745096500276507886740D96500276EF
:100E30000D863A789CE67539FFB402037539A0B483
:100E4000030375398278A0E6F8600674282409D86F
:100E5000FCF55578988656788DE624FF922B78839A
:100E6000E624FF922978C0760008761108765508A6
:100E70007677227557007558007597DE7597AD75B2
:100E800081B043FF8075EF0675A9001204A8758034
:100E9000FF75F1E175A4007580FF75D4FF759000B2
:100EA00075F27E75A57E75900075D5FF75A60175E6
:100EB000A72075F30175CC0175A70075E34075E2B5
:100EC000021204A8E4F8F6D8FDB1A39199D113C297
:100ED000AF1203CA1204691204901203CAC2AF759A
:100EE00057007558001204A875A91375A71075C18D
:100EF0000075A700C224780979007A0030850CDAE1
:100F0000FBD9F7D8F312045D021C00302A0E12043C
:100F1000561203D21203D21203D2C22A7588517517
:100F20008E017589AA758C00758D0075C804759140
:100F30000475D84075D90875F781759E07759602B6
:100F400075DA4275DB42759B80759D0075D10C7515
:100F5000BCB975BB1075E88075B2011203BE31CC07
:100F600075E4D530270375E45DC22875A82D75E6B4
:100F70009075B803D2AF758E0C755A80755910757F
:100F80005D507560F77561E77562D67566E17563EA
:100F9000EB7564CA7565A975300A1203CAE530603D
:100FA0002B755AC0755908755D287560FF7561F716
:100FB0007562EF7566E17563FB7564EB7565DA75EF
:100FC000300A1203CAE5306003020EDDC0D075D0CE
:100FD00010AF8ED0D0D22A753700C2AF1203FFD225
:100FE000AF1203CA3025FAC2AF120405D2AFE4F53E
:100FF00041F542F55EF55FF533F53BC3E53B945EA5
:10100000402C753B000533789AE67814146012780A
:101010002814600D786414600878C8146003753370
:1010200000C3E53398400715337804120A56202888
:1010300003120A8930250CE5317003020EDD120916
:10104000E080B81203CA2025B2C2AF1204A8D2AF02
:10105000E4F522F523F5381203BE75E89030EDFD76
:1010600085BD54E5BE70037554007553081204FF26
:10107000755308C2AF79848752855250855251D238
:10108000AF75A71075C13075A70075A903D224C329
:10109000E55A33F55AC3E55D33F55DC3E55933F5DC
:1010A00059E560C563F560E561C564F561E562C554
:1010B00065F56275663CA2219212302204A2269246
:1010C00012D210D21175340075360C12098A120929
:1010D000AB12056412056B12056412056B120564F0
:1010E0001207DF1208BF12090612056B1207D4128D
:1010F00004B81208BF12092712056B1207DF120885
:10110000BF12094812056B1207D41208BF120969F1
:1011100012056B1207DF1208BF12098A12056B75E0
:10112000E8901207D41208BF1209AB1204FF12058F
:101130006B301017855250C3E53494185005302594
:101140009F21C5C210855250855251301118201D63
:1011500015E536147006C211D21C8084F5362022A3
:101160000320256101E0753700D21B20220F78FA99
:1011700079A4E760027803C3E532985048E531600E
:1011800044302217201205202607800F30260280C7
:101190000A201D07D21D855250210778F0301D0509
:1011A0008552507820C3E54298500201E0301D1569
:1011B000C21DA2269212D21175361285525001E03C
:1011C000201B020537C2AF1204A875220075230048
:1011D00075A91375A71075C10075A700C224D3E5C2
:1011E0005A13F55AC3E55D13F55DC3E55913F55977
:1011F000E560C563F560E561C564F561E562C565F7
:10120000F5627566E1D2AF1203CA1204A820251355
:10121000C3E537940450020149C2AF120462D2AF51
:10122000020FCC75370078A4E66006D294D295D22E
:0412300096020FEE25
:1019FD00020E73000DCBFF33010119FF093001FFFA
:101A0D0055AAFF00FFFFFFFF04FFFFFFFFFF285058
:0D1A1D0004FF02FFFFFF07FFFFFF0000FFB7
:101A400023505F485F333023202020202020202097
:101A500023424C48454C492445464D3842323123B7
:101A6000426C75656A6179202854455354292020B9
:101A7000023A042034420D00452D0D0034420D0081
:101A80004E27D300452DD019341900000000000066
:101A90000000000000000000000000000000000046
:101AA0000000000000000000000000000000000036
:101AB0000000000000000000000000000000000026
:101AC0000000000000000000000000000000000016
:101AD0000000000000000000000000000000000006
:101AE00000000000000000000000000000000000F6
:011AF000FFF6
:101C0000C2AFC2D37597DE7597AD7581C075A90057
:101C100043FF80752438752503B1DB7529A5752A26
:101C2000F143F12053A4DFD28575D4FF75E3407DE5
:101C3000FA780379E67C10752200752300901DE880
:101C40007B0675249875250130850281482085081A
:101C5000D8FBD9F9DCF781BA308508D8FBD9F9DC93
:101C6000F781BAB19BE493A3C39A6004DDC381BA40
:101C7000DBDBB18D600281317B08E493FAA3B16EA6
:101C8000DBF87A30B16E752200752300B18DEAFC65
:101C9000EBFDC3ED94FE400EB18D8A278B28ED300D
:101CA000E0048A828B83B18D7AC270D8C3ED94FE32
:101CB000601950CEBD0029EC600F7520007521FF22
:101CC000752900752A000200008100A827A92808AC
:101CD00009D804D90281DDB191EAF281D10D81A642
:101CE000C3ED94035051EDA2E092007AC5C3E582A2
:101CF0009400E583941C508C200010438F02438F86
:101D0000018529B7852AB7F0300027A827A9280818
:101D100009438F01538FFDD804D902A132C3E58353
:101D2000941C4003A3A117E28529B7852AB7F0A325
:101D3000A117538FFC81827AC1BD030CE493A3FAEF
:101D4000B152DCF8B14A81828184AA22AB23B16E00
:101D5000EBFAEA6222752608C3E52313F523E52290
:101D600013F52250066323A0632201D526EAB1DBD6
:101D7000B1DB75260AEAF4200102D285300102C2E5
:101D800085B1DBC3134002C201D526EB22B191EA33
:101D9000FB208502A191308502A196752608AE240C
:101DA000AF25C3EF13FFEE13FEB1DFB1DBC3EA13C0
:101DB0003085024480FA30E703632201C3E5231330
:101DC000F523E52213F52250066323A0632201D5F3
:101DD00026D9E52265236523F52222AE24AF250E00
:101DE0000FDEFEDFFCD20122424C48656C693437BD
:061DF0003164E8B20601B7
:00000001FF
