:020000040800F2
:100000000000012049AC0508C9AC050831FD030812
:1000100095FD0308C9AC0508C9AC0508000000003F
:10002000000000000000000000000000C9AC05084E
:10003000C9AC050800000000C9AC05083D1E040855
:10004000C9AC0508C9AC0508C9AC0508C9AC0508A8
:10005000C9AC0508C9AC0508F936040825380408F8
:10006000E9370408AD37040871370408B191050871
:10007000A191050891910508819105086D910508E8
:100080005991050845910508C9AC0508C9AC050892
:10009000C9AC0508C9AC0508C9AC05083537040862
:1000A000D95B0508615C0508C95B0508895C050822
:1000B000515C0508415C0508315C0508B5960508EA
:1000C000D9960508F99505081D960508C9AC0508D7
:1000D000C9AC0508012A0408BD27040879250408CD
:1000E000BD360408C9AC0508C9AC0508B95B0508EC
:1000F000E95B0508C9AC0508115C050831910508E4
:10010000C9AC0508C9AC0508215C0508C9AC0508DF
:1001100035230408F1200408C9AC050891E600085D
:100120001D91050809910508F5900508E19005085D
:10013000CD90050800000000000000000000000055
:10014000000000000000000000000000D1EA0008EC
:10015000B9900508A590050891900508AD1E040802
:10016000359505085D950508C9AC0508C9AC0508B5
:10017000C9AC0508C9AC050800000000000000007B
:10018000C9AC0508C9AC0508C9AC0508C9AC050867
:10019000C9AC0508C9AC050800000000C9AC0508D9
:1001A000000000000000000000000000C9AC0508CD
:1001B000C9AC0508C9AC050800000000000000003B
:1001C000000000000000000000000000000000002F
:1001D000000000000000000000000000C9AC05089D
:0801E000A0A7050001000000CA
:1001E8000E02010002000000884B0120E44B0120B0
:1001F8000000000050090008232001001000000042
:10020800404B0120E84B012000000000E1FB010801
:100218000D10010070000000B44A0120F84B0120C5
:10022800000000001D670308040002002000000011
:10023800544A0120684C0120000000000000000022
:100248002C00050011000000404A0120884C0120C4
:10025800000000008D790208FD0101002400000063
:10026800F84901209C4C01200000000043010408CB
:1002780006100100160000007C2A0120C04C012055
:10028800000000009D750408FB010100010000004A
:10029800B8490120D84C012000000000DD74040892
:1002A800FC0101000900000084480120DC4C012009
:1002B80000000000E5740408F701010006000000D2
:1002C80078480120E84C012000000000520900088D
:1002D800F90101000400000074480120F04C0120DD
:1002E80000000000F1010408204201009000000015
:1002F800A0470120F44C012000000000497C0208BE
:10030800F82101000600000030480120844D01203A
:100318000000000058090008160215003F00000000
:10032800942A01208C4D0120000000000575040866
:100338003400010010000000D0460120CC4D0120FF
:1003480000000000257C02081102010008000000DE
:10035800A8460120DC4D0120000000005E090008CD
:100368001212010004000000A0460120E44D012003
:100378000000000066090008182001003000000095
:1003880070460120E84D012000000000A57804080F
:100398002902010002000000E4450120184E012056
:1003A80000000000857504080A700100280000009C
:1003B800BC4501201C4E012000000000BDFA0108C8
:1003C8001220010011000000A8450120444E012020
:1003D800000000006A090008000201000A0000008D
:1003E800E8420120584E01200000000000000000F3
:1003F800FF110100060000008C420120644E01201C
:1004080000000000BD740408081204001400000075
:10041800984201206C4E0120000000002975040854
:100428001302010004000000782A0120804E0120F8
:10043800000000007C090008FA0101000300000028
:1004480074420120844E012000000000FD7404085D
:1004580002020100030000006C3A0120884E0120CE
:1004680000000000000000000C0201000400000071
:10047800483A01208C4E012000000000CD74040889
:10048800FE01010014000000043B0120904E0120F1
:10049800000000005D7404080B3001001A00000021
:1004A800D8650120146901200000000080090008B7
:1004B8001F30010024000000186501203069012068
:1004C800000000009C090008050201000A00000065
:1004D800446501205469012000000000C00900089B
:1004E800010201000A00000074730120FC7501205C
:1004F80000000000197504081B1001000C00000022
:10050800E86C012008760120000000009D840108A5
:1005180021020100F0000000186B01201476012070
:100528000000000091900108231201001000000053
:10053800807001200477012000000000CC09000829
:10054800371001002E000000E0720120147701200E
:1005580000000000DC090008161001000600000079
:100568007870012044770120000000000A0A000882
:100578002F10010022000000D87501204C770120BF
:1005880000000000100A00081E000100070000001B
:10059800B86F01207077012000000000320A0008BF
:1005A8000510010006000000F86F0120787701208F
:1005B800000000003A0A0008F57101006800000018
:1005C800986A01208077012000000000819F0108BF
:1005D800FD07010074000000E2690120E8770120AE
:1005E80000000000197E0108261001000E0000001E
:1005F8006C7801205C780120000000007D7C0108F7
:10060800F62101000C000000D08501202086012081
:1006180000000000400A00081C0202001C00000044
:10062800748001207086012000000000FD79040814
:100638002820010018000000A08401208C860120D9
:1006480000000000F5160208041201000200000074
:1006580090850120A4860120000000004C0A0008B3
:100668000F020100010000008C850120A8860120EE
:10067800000000004E0A00081400010018000000E5
:1006880084840120AC86012000000000500A000884
:10069800012001000C000000587C0120C4860120C4
:1006A80000000000680A00080C200600CC000000CA
:1006B8002C7B0120D086012000000000F9050308EA
:1006C8000ED00300C8010000487901209C87012052
:1006D800000000001D7D0208130001000400000056
:1006E800C48101206489012000000000740A000808
:1006F80001010100040000009078012068890120B0
:1007080000000000000000000001010004000000DB
:10071800887801206C89012000000000780A000810
:100728000201010003000000847801207089012083
:100738000000000039060308030001000100000062
:10074800A0930120B49301200000000000000000E5
:100758001010010002000000AC930120B8930120A2
:10076800000000007C0A00081900010005000000D4
:1007780024920120BC930120000000007E0A00089A
:100788001A0001000E000000C0910120C49301204E
:1007980000000000840A0008150010007000000026
:1007A80070900120D4930120000000000000000098
:1007B8002A000800600000006C9201204494012087
:1007C80000000000FD7B02082B001200240000003E
:1007D800C8940120A4940120000000006179020857
:1007E80019020100100000002C8F0120EC94012058
:1007F8000000000009750408292014007800000092
:10080800008E0120FC940120000000000000000080
:10081800020001000C000000E09E0120F49E01206F
:10082800000000000000000025201E002C01000030
:10083800B09D0120009F0120000000000000000082
:100848001A0201003C000000E4A6012028A80120AB
:10085800000000002D790408381001000100000094
:10086800F4A2012064A8012000000000920A0008F8
:10087800280204000400000080A8012088A90120A3
:100888000000000099750408270204000400000015
:100898007CA801208CA90120000000008D750408A7
:1008A8001F020800100000006CA8012090A9012078
:1008B80000000000757404081D0201000200000019
:1008C80088AE01209CAE012000000000940A0008B8
:1008D80006020400100000008CAE0120A0AE01202A
:1008E80000000000D17A040827000100040000007D
:1008F800C0A90120B0AE012000000000960A00083F
:100908000B1201003C00000030D2012008D8012061
:10091800000000009C0A00080D12010014000000ED
:10092800A8D3012044D8012000000000D80A0008FC
:10093800100201000100000060D801205CD80120ED
:0809480000000000EC0A0008A9
:1009500000000000010000000401F4011400000088
:10096000000001010101FFFFFFFF00000001000086
:10097000055337583200000000020000000001005B
:10098000AE014A015E012C0164000200000001007A
:100990000A019A01001E0A00000000000000000089
:1009A000000100000005000001020300000000003B
:1009B00000000000000000000000000000800700B0
:1009C0000000000000000F000B7C00000000000091
:1009D00000000000000000000000000020003200C5
:1009E000C800D00796001400320028004C044006CE
:1009F0000005500014000F00080064000100010011
:100A000005000A000000F4019600C4090000190066
:100A100000000000000000000000000000000000D6
:100A200000000000000000000000000000000000C6
:100A30000000000001000000000020000301000091
:100A400000000000010000000202000000000000A1
:100A500003000000581BE803320000000000000003
:100A6000000000000A000000E8036400040A00011E
:100A700014001E000020403090010000000500001E
:100A8000280100007E05EA05B4053200E803D0071E
:100A90000000000000002003000000000000000033
:100AA0000000000000000000000000000000000046
:100AB0000000000000000000000000000000000036
:100AC0000000000000000000000000000000000026
:100AD0000000000001000000000000000000000015
:0D0AE0000000000000000000000000000009
:100AED0000C20100000008000A06000200000040DC
:100AFD000100000009026400030100C03209040076
:100B0D000001030000000921110100012226000748
:100B1D0005830308000A080B010202020100090403
:100B2D00010001020201000524001001052401004D
:100B3D0002042402020524060102070582030800AF
:100B4D00FF09040200020A0000000705010240002F
:100B5D000007058102400000591B0108591A0108C0
:100B6D0009490108000000005D12010865450108F2
:100B7D0089120108000000000000000000000000C4
:100B8D003D1201084D1201082D1201081D12010818
:100B9D001A0300000000000000000000000000002B
:100BAD000000000000000000000000000403090424
:100BBD00FFFFFFFF006002401060024000000000D8
:100BCD0000000000000B000000000000000000000D
:100BDD00000000000060024028600240010000009B
:100BED0000000000060C00000000000000000000E6
:100BFD000000000000600240406002400200000062
:100C0D0000000000100D00000000000000000000BA
:100C1D000000000000600240586002400300000028
:100C2D0000000000160E0000000000000000000093
:100C3D0000000000006002407060024004000000EF
:100C4D0000000000200F0000000000000000000068
:100C5D0000000000006002408860024005000000B6
:100C6D000000000026100000000000000000000041
:100C7D000000000000600240A0600240060000007D
:100C8D000000000030110000000000000000000016
:100C9D000000000000600240B86002400700000044
:100CAD0000000000362F00000000000000000000D2
:100CBD0000000000006402401064024000000000CB
:100CCD0000000000003800000000000000000000DF
:100CDD000000000000640240286402400100000092
:100CED0000000000063900000000000000000000B8
:100CFD000000000000640240406402400200000059
:100D0D0000000000103A000000000000000000008C
:100D1D00000000000064024058640240030000001F
:100D2D0000000000163B0000000000000000000065
:100D3D0000000000006402407064024004000000E6
:100D4D0000000000203C000000000000000000003A
:100D5D0000000000006402408864024005000000AD
:100D6D00000000002644000000000000000000000C
:100D7D000000000000640240A06402400600000074
:100D8D0000000000304500000000000000000000E1
:100D9D000000000000640240B8640240070000003B
:100DAD0000000000364600000000000000000000BA
:100DBD0000000000120100020000004083042A57C9
:100DCD0000020102030100001201000202000040B6
:100DDD0083044057000201020301000012010002CA
:100DED00EF0201408304563200020102030110009C
:100DFD007D000000EDA90008A19100083D8E0008BE
:100E0D0039960008BD960008FD970008218D000851
:100E1D00C58C0008BD8C000801000000B45A0608FE
:100E2D00BC5A060800000000A9060308A0860100B0
:100E3D0004000000000000000000000000000000A1
:100E4D000000000000000000000000000000000095
:100E5D00000000000000000000000000B45A060869
:100E6D00C45A0608000000007D940308E803000042
:100E7D000400000000000000000000000000000061
:100E8D000000000000000000000000000000000055
:100E9D000000000000000000000000007C6C06084F
:100EAD00CC5A060800000000F50500007D0000008A
:100EBD00060000000000000000000000000000001F
:100ECD000000000000000000000000000000000015
:100EDD00000000000000000000000000D45A0608C9
:100EED0000000000000000005DB50308E8030000ED
:100EFD0003000000000000000000000000000000E2
:100F0D0000000000000000000000000000000000D4
:100F1D00000000000000000000000000D85A060884
:100F2D000000000000000000C1C3020810270000EF
:100F3D0003000000000000000000000000000000A1
:100F4D000000000000000000000000000000000094
:100F5D000000000000000000000000008CCD06081D
:100F6D00000000004175020809BF03085F7600000C
:100F7D00050000000000000000000000000000005F
:100F8D000000000000000000000000000000000054
:100F9D0000000000000000000000000024D1060841
:100FAD000000000000000000E5FD03081027000010
:100FBD000100000000000000000000000000000023
:100FCD000000000000000000000000000000000014
:100FDD00000000000000000000000000E45A0608B8
:100FED000000000000000000F1660308E8030000A7
:100FFD0005000000000000000000000000000000DF
:10100D0000000000000000000000000000000000D3
:10101D00000000000000000000000000F05A06086B
:10102D000000000000000000F10C0308204E00003D
:10103D0003000000000000000000000000000000A0
:10104D000000000000000000000000000000000093
:10105D00000000000000000000000000005B06081A
:10106D000000000000000000E10A0308204E00000F
:10107D000300000000000000000000000000000060
:10108D000000000000000000000000000000000053
:10109D00000000000000000000000000105B0608CA
:1010AD000000000000000000FDBA0308400D030021
:1010BD000300000000000000000000000000000020
:1010CD000000000000000000000000000000000013
:1010DD00000000000000000000000000205B06087A
:1010ED0000000000000000004DB3030810270000B1
:1010FD0001000000000000000000000000000000E2
:10110D0000000000000000000000000000000000D2
:10111D00000000000000000000000000285B060831
:10112D00000000000000000051B801081027000069
:10113D00030000000000000000000000000000009F
:10114D000000000000000000000000000000000092
:10115D000000000000000000000000002C5B0608ED
:10116D000000000000000000E9680208A0860100F0
:10117D000100000000000000000000000000000061
:10118D000000000000000000000000000000000052
:10119D00000000000000000000000000345B0608A5
:1011AD000000000000000000ED92030850C3000095
:1011BD000100000000000000000000000000000021
:1011CD000000000000000000000000000000000012
:1011DD000000000000000000000000003C5B06085D
:1011ED0000000000000000006D7C0108A0860100D9
:1011FD0000000000000000000000000000000000E2
:10120D0000000000000000000000000000000000D1
:10121D00000000000000000000000000485B060810
:10122D000000000000000000CD8F0308A861000041
:10123D0001000000000000000000000000000000A0
:10124D000000000000000000000000000000000091
:10125D00000000000000000000000000545B0608C4
:10126D00000000000000000095670308A00F0000BB
:10127D000100000000000000000000000000000060
:10128D000000000000000000000000000000000051
:10129D00000000000000000000000000605B060878
:1012AD000000000000000000C1E50108102700004B
:1012BD000100000000000000000000000000000020
:1012CD000000000000000000000000000000000011
:1012DD000000000000000000000000006C5B06082C
:1012ED00000000000000000061DE01081A4100004E
:1012FD0001000000000000000000000000000000E0
:10130D0000000000000000000000000000000000D0
:10131D00000000000000000000000000705B0608E7
:10132D0000000000000000001D1C01081027000037
:10133D00010000000000000000000000000000009F
:10134D000000000000000000000000000000000090
:10135D000000000000000000000000007C5B06089B
:10136D000000000000000000BD2C02081A41000022
:10137D00010000000000000000000000000000005F
:10138D000000000000000000000000000000000050
:10139D00000000000000000000000000805B060857
:1013AD000000000000000000F51F030840420F0080
:1013BD000000000000000000000000000000000020
:1013CD000000000000000000000000000000000010
:1013DD000000000000000000000000008C5B06080B
:1013ED0000000000000000006D67030850C30000FE
:1013FD0000000000000000000000000000000000E0
:10140D0000000000000000000000000000000000CF
:10141D000000000000000000000000000000803F00
:10142D000A0600020000004001000000090720002C
:10143D00010104C032090400000208065005070529
:10144D008102400000070501024000000902200052
:10145D00010104C032090400000208065005070509
:10146D008102400000070501024000000902200032
:10147D00010104C0320904000002080650050705E9
:10148D008102000200070501020002000A060002A7
:10149D00000000400100000009022200010100E0EF
:1014AD0032090400000103010200092111010001AC
:1014BD002226000705830308000A00000902220006
:1014CD00010100E0320904000001030102000921BD
:1014DD001101000122260007058303080007000003
:1014ED0009022200010100E032090400000103019C
:1014FD0002000921110100012226000705830308BE
:10150D00000A00000A060002000000400100000071
:10151D0009074300020104C0320904000001020260
:10152D00010005240010010524010001042402021C
:10153D0005240600010705820308001009040100B7
:10154D00020A0000000705010240000007058102A4
:10155D004000000009024300020100C032090400EE
:10156D000001020201000524001001052401000103
:10157D000424020205240600010705820308001059
:10158D0009040100020A0000000705010200020023
:10159D00070581020002000009024300020100C09C
:1015AD0032090400000102020100052400100105AA
:1015BD00240100010424020205240600010705820E
:1015CD000308001009040100020A000000070501CC
:1015DD0002400000070581024000000105010905D8
:1015ED00A101A1000501093009310932093309357D
:1015FD000934094009381581257F75089508810240
:10160D00C0C00000092111010001222600000000C8
:10161D000C69012000000000E468012000000000BA
:10162D00010000000100000000000100E001820047
:10163D00FFFFFFFF0801FF01FFFFFFFFFFFFFFFFA0
:10164D00907D0120E47D012042570200000001063B
:10165D0042570200000001060000000000000000DB
:10166D000000000008FA050800000000000000005E
:10167D0000000000B4F905080001010100FF0000A1
:10168D0000000000000000000000000044F9050803
:10169D0001000000FA000000010000000100000040
:1016AD0001010000487C01200000F4010100000050
:1016BD00467C01200000F40101000000447C012063
:1016CD000000F40101000000427C01200000F40143
:1016DD0001000000407C01200000F4010100000029
:1016ED003E7C01200000F401010000003C7C012043
:1016FD000000F40101000000E1F80108A5F801085F
:10170D0000000000F8E605082C7C012005320100E0
:10171D003A7C01206400F40101000000387C0120B6
:10172D006400C409010000002A7C0120E803D007F1
:10173D0001000000287C0120E803D0070100000013
:10174D00267C0120E803D00701000000247C012045
:10175D001E00B80B01000000327C012005000F00B7
:10176D0001000000347C012003000A00010000008C
:10177D00227C01201E00F40101000000367C0120B6
:10178D000200000084E70508207C0120140064009D
:10179D00010000002E7C01203200E8030100000052
:1017AD001E7C01200000C800010000006C640608CA
:1017BD00746406089A6C01200100C4090000000041
:1017CD00986C01200100C40900000000966C0120F6
:1017DD000100C40900000000946C01200100C4093F
:1017ED0000000000906C01200100C4090000000001
:1017FD00926C01200100C409000000008E6C0120D4
:10180D000100C409000000008C6C01200100C40916
:10181D0000000000AF78012000C80100AE78012063
:10182D0000C80100AC7801200000FFFF0A00000095
:10183D00AA7801200100C80001000000A87801204D
:10184D003200307532000000A678012005820500B7
:10185D00A478012005002C0105000000A2780120CC
:10186D00055A05009F78012000FF0100A178012095
:10187D0002000000CC0C01209D7801200300000027
:10188D0080DF05089E78012000FF0100A07801206F
:10189D0002000000CC0C01209C7801200300000008
:1018AD0080DF050835F80108C5F7010800000000C4
:1018BD0090E70508687C0120EE02CA0801000000CF
:1018CD00667C012000C8010064000000657C0120D9
:1018DD0000C8010064000000647C012002000000CB
:1018ED009CE805089678012080C1803E0500000027
:1018FD009478012080C1803E050000008E78012083
:10190D0080C1803E050000008C78012080C1803EA2
:10191D00050000008778012000FF0100807801207C
:10192D006400F401010000007F7801200400000034
:10193D00A8E805087E78012002000000BCE8050833
:10194D00377901200D000000C8E805083479012021
:10195D000064010032790120320010270A000000D6
:10196D00307901200D000000C8E805082F7901200D
:10197D000D000000C8E805082E79012002000000C6
:10198D0000E905086E7C01203D0000000CE905080A
:10199D006C7C01200100FF7F010000006B7C0120A9
:1019AD000200000004EA0508397901200300000057
:1019BD0014EA0508387901200300000014EA05082F
:1019CD001C7B01200000E803010000001A7B0120B0
:1019DD000000E80301000000187B01200000E8036F
:1019ED0001000000167B01200000E803010000004B
:1019FD00147B01200000E80301000000127B012090
:101A0D000000E80301000000117B0120001401001B
:101A1D00107B01200300000024EA05082A7B012029
:101A2D000200000034EA0508287B01200000F401C3
:101A3D0001000000267B01200000F40101000000E0
:101A4D00247B01200000F40101000000227B012015
:101A5D000000F40101000000207B01200000A00F18
:101A6D00010000001E7B01200000A00F01000000FE
:101A7D000B7C0120196401000A7C0120020000008A
:101A8D0040EA0508087C0120E803D0070A000000A1
:101A9D00067C0120006401000A000000FB7B012090
:101AAD0000640100FA7B012000640100027C01202A
:101ABD00006401000A000000017C012000640100A7
:101ACD000A000000007C0120006401000A000000F3
:101ADD00057C0120006401000A000000047C012047
:101AED00006401000A000000037C01200064010075
:101AFD000A000000FF7B012001FF01000A00000029
:101B0D00FE7B012001FF01000A000000FD7B01208A
:101B1D0001FF01000A000000427901200000F401DC
:101B2D0001000000407901200000A00F010000001D
:101B3D003E7901200000A00F010000003C7901203A
:101B4D000000A00F010000003A7901200000A00F55
:101B5D00010000000180012000C80100008001206B
:101B6D0000640100FF7F012000640100FE7F012061
:101B7D0000640100FD7F012000640100FC7F012055
:101B8D00FF080100FB7F012001640100048001209A
:101B9D000164010003800120010000004CEA0508EA
:101BAD00028001200400000054EA0508FA7F01209C
:101BBD0000640100F87F01201400E803010000001B
:101BCD00F67F0120E80330750A000000F57F012043
:101BDD0000C80100F47F012000C80100F37F01203F
:101BED0000C80100F27F012000320100F17F0120C9
:101BFD00006401000A000000128001200000D007DF
:101C0D00010000000D80012000C801000C800120A2
:101C1D0000C801000B80012000C8010010800120C8
:101C2D000000D007010000000A80012000C801005B
:101C3D000980012000C801000880012000C80100B2
:101C4D000E8001200000D007010000000780012058
:101C5D0000C801000680012000C801000580012098
:101C6D0000C8010069F5010851F5010800000000E8
:101C7D0068EA050827790120005A0100267901201C
:101C8D0000C8010024790120E803D00701000000FD
:101C9D000000000000000000A511020804EB05087B
:101CAD0053544D3332463758320000009B78012093
:101CBD00000301009A7801200003010095F401084A
:101CCD0051F401080000000058EB050811F401085B
:101CDD00C9F3010800000000F4EB0508D9F4010870
:101CED00DD0F02080000000074EC05089878012053
:101CFD0001030100B9F901088DF901080000000088
:101D0D0094EF050871F301083FF30108000000008E
:101D1D0004F0050879F50108A1260208000000006D
:101D2D00A0F0050811140208E5F9010800000000F3
:101D3D0048F10508C9F50108000000000000000089
:101D4D00D4F105089DF601084DF6010800000000CC
:101D5D0038F205082DF70108F1F601080000000022
:101D6D00D4F20508256F020869F70108000000008C
:101D7D0060F305081D7C01200106010011F6010824
:101D8D00DDF50108000000005CF405086B6E02082B
:101D9D004110020800000000CCF405086D6F020828
:101DAD00F910020800000000F4F505081C7C012064
:101DBD000103010021F50108F1F401080000000004
:101DCD00C8F605081DF9010800000000000000001C
:101DDD002CF70508A1F30108C50F0208000000004B
:101DED00ACF7050800000000000000000000000036
:101DFD0038F805089DF70108711102080000000070
:101E0D009CF8050801D60101B23E00000000803F9C
:101E1D0000000000000000000000000000000000B5
:101E2D0000000000000000000000000000000000A5
:101E3D00000000000000803F0000000000000000D6
:101E4D00000000000000803F0000000000000000C6
:101E5D00000000000000803F0000000000000000B6
:101E6D0000000000FFFFFFFF01000000C9BA0308DA
:101E7D000000000000000000000000000000000055
:101E8D003CA0012008000000000000002CA0012053
:101E9D0008000000FFFFFFFF01000000A00F000081
:101EAD00B80B000002FFFF01685E0C00020000008D
:101EBD00E18A0008C58A0008818A00080000000038
:101ECD00758A0008618A00084D8A0008000000002C
:101EDD000000000000000000000000003D8A000826
:101EED00000000002D8A0008BD920008D58B000867
:101EFD009D8B0008B18B0008558B0008418B0008A5
:101F0D002D8B00088D9D0008298A0008A5890008E1
:101F1D0089890008FFFF0000FFFFFFFF80CD060845
:101F2D0000000802050304000000000088CD06082B
:101F3D00010008020504040000000000F4800608FA
:101F4D000200FE010110030000000000C06706083A
:101F5D0003001402000300000000000090CD0608ED
:101F6D0004001F02020008000000000098CD0608C2
:101F7D0005001F020201080000000000A51A01085B
:101F8D00051A01086146010800000000000000006C
:101F9D00354401086D4401080000000000000000F8
:101FAD0000000000C1110108B1110108A1110108C3
:101FBD009111010821840408A979040811840408E9
:101FCD002D760408C18304086D8304081D7604086A
:101FDD004C150120317E040835760408317604084D
:101FED00297604087D7E04082576040821760408E8
:101FFD00204A0608FFFFFFFF1F0000001C00000025
:10200D001F0000001E0000001F0000001E00000049
:10201D001F0000001F0000001E0000001F00000038
:10202D001E0000001F0000000068214C008002020D
:10203D001F00000053544D202020202050726F644B
:10204D00757420202020202020202020302E30319B
:10205D000B01010101250000C0560608FF0100001B
:10206D00F4010000FF00000000000000040100006A
:10207D00000700000000000000000000000200004A
:10208D00100000000000000000000000070000002C
:10209D00B001000002000000090000000100000076
:1020AD00C415012000000000000000000000000029
:1020BD000000000000000000000000000000000013
:1020CD000000000000000000000000000000000003
:1020DD0000000000000000000000000000000000F3
:1020ED0000000000000000000000000000000000E3
:1020FD0000000000000000000000000000000000D3
:04210D0000000000CE
:1021110001000000000000000000000000000000BD
:04212100200000009A
:08280000082800080040000850
:10800000026C03463AB11A6CD20608D50022012050
:1080100083F83C207047426480F83C20F3E71A6CF8
:1080200049494A4811401A6841F00201F0B4196404
:108030004168474D21F44031416041685C6821430B
:1080400041605168186921F48071D3F808C0DF6875
:10805000516054689E6A44EA0024AE4254605468F9
:1080600024F040745460506840EA0C0050609068FE
:1080700020F400609060916841EA0701916054D05B
:108080009068DC6A20F07060906091680E439660A2
:10809000906820F040509060916821439160906812
:1080A0009C6920F002009060916841EA440191606F
:1080B00093F82010002941D05468596A44F40064B0
:1080C000481E5460516821F460415160516841EA92
:1080D00040315160D06A0025DC6920F470005E698F
:1080E000611ED0622846D46A44EA0154D46294687E
:1080F00024F400749460946893F8301044EA4124A6
:108100009460946824F480649460916841EA8621C4
:1081100091605D641A6C22F0030242F001021A645D
:10812000002283F83C20F0BC7047916821F0706118
:108130009160916821F040519160B0E7516821F45D
:1081400000615160C6E700BFFDEEFFFF0023014064
:108150000100000F2DE9F04F022389468A462DEDDC
:10816000108B99B0DFEDCABA14930346169004330E
:10817000159217934FEADA06169DDDF85CC04FEAB8
:10818000CA0305EB46111396F0004FF0000B01EB0C
:10819000061437010390A6EB86020194049706EBC0
:1081A000460E04EBC202041D381D06EB86072C4464
:1081B000C6EBC60802972844029D02EB46174FEA19
:1081C000C808ED0001EBC60602954FEA0E150595AD
:1081D0004FEACE050695139D4FEA451E019D95ED8C
:1081E000007AD34492ED005AD7ED004AD945D1ED3B
:1081F000006A50ED013A35EE241AD6ED002A1CED46
:10820000016A73EE875A54ED017A33EEC73A36EEBF
:10821000264A77EEA21A36EE666A77EEE27A74EEB6
:10822000256A71EE812A77EE633A37EEC57A36EE2B
:10823000A22A77EEE47A76EEE26A0CED012A37EEB6
:10824000247A77EE857AD1ED018AC1ED006A74EE69
:10825000655A96ED015AB0EE460A94ED004AA7EE33
:108260002B6AD2ED010AE7EEAB3A74EE456AD7ED20
:10827000012AA7EE6B0A9CED007AD5ED014A34EE97
:10828000054A37EE689A90ED005A36EEE02A76EE0F
:10829000E26A30EEA28A32EE222A76EEA06AF0EE90
:1082A000492A75EE640A37EE287A75EE249AE2EED2
:1082B0006B2A74EEC54AF0EE608AB0EE40AAE6EE94
:1082C000AB4AE6EEAB8AA6EEEBAAF0EE496AB0EE58
:1082D000629A37EE695AE2EE2B6AB0EE432A74EEE8
:1082E00008AAA7EEEB9AA7EEAB2A77EE297A35EE2D
:1082F000617A75EEC89A35EE415A75EEC45A37EE7A
:10830000AABA77EEEA7A37EE011A8CED00BA36EEA9
:10831000287AC1ED017A39EE844A76EEC27A1944A0
:1083200075EE885A9C4435EE215A00ED014A70EEF4
:108330008A0A70EE244AC5ED005A36EE686A80ED6E
:10834000001A72EEA33A85ED015A33EE093A04EDB4
:10835000017A72EE266A87ED006A1D44C6ED000AB6
:108360001844C2ED004AC4ED007A1C44C7ED016A0E
:108370001F44C6ED013A1E4482ED013A1A443FF60D
:108380002EAF139A072A40F2C681039A0EF1080E07
:10839000169F08F108000832029E059D4FF0000864
:1083A00094463A46083608357244069C0499D346EA
:1083B000109207EB0C0208340C310F92BA190E928E
:1083C0007A190D923A190C923A180B927A1809926E
:1083D00007F10C020A9201220892149ADDF824C0D7
:1083E0009044159A0A9F02EBC8020B9EA8EB880ED8
:1083F0000C9D02EBC80192ED00BA0D9C01EBC80286
:10840000D1ED00AA0E9802EBC80192ED00AA01EB93
:10841000C802D1ED009A02EBC80192ED009A01EB7F
:10842000C802D1ED008A0F9902EB0E1E92ED008A70
:10843000109A0EEBC80ADEED017A1192CDED047AA6
:108440000AEBC802DAED017A02EBC80A1291CDED0F
:10845000057AD2ED017A0AEBC802DDF820E0CDED15
:10846000017ADAED017A02EBC80ACDED067AD2ED97
:10847000017A0AEBC802CDED027ADAED017ACDED90
:10848000077AD2ED017ADDE91121CDED037A01E021
:10849000F304353F17ED017ADE44D2ED007A94ED16
:1084A000005AF145D5ED006A37EE274AD0ED004A73
:1084B00077EE677A1CED016A96ED007A91ED001A6D
:1084C00076EE055A36EE872A97ED00DA71EE24EA49
:1084D00076EE453A74EE252A31EE641A35EE466A98
:1084E0003EEE825A74EE655A31EE664A72EE854A65
:1084F00031EE471AB0EE67CA47ED014A34EE077A0B
:10850000D1ED014A31EE261AD0ED016A72EEC52A8C
:1085100095ED014AA7EE6BCA74EEE60A96ED010AE4
:10852000E7EE2B7A92ED017A94ED015A74EEA64AA9
:108530003DEE473ADCED006A70EEC4CA70EEC00A48
:10854000B0EE43EA7CEE80CA74EE001A70EE840A44
:10855000ACEEEBEA36EEC54A3DEE077AB0EE63DAF2
:1085600036EE850AACEEAB3AF0EE4EDAA1EE2BDA3F
:10857000A1EE2B6AE1EE6BDA75EE666AB0EE441A94
:10858000F0EE4CCA37EE405AA0EEAB1AE0EEEBCA62
:10859000E0EEAB6A37EE007A74EEA10A35EEE1FA4E
:1085A00075EEE45A75EE6EFA37EE600A71EEA55A72
:1085B000DDED061A35EE425A7FEE244A3FEE822A5E
:1085C00022EEE1FA61EE80FADDED051A3EEE855A03
:1085D0003EEE066A73EEAD3A21EE82EA73EE4DDAB4
:1085E0003DEE033A24EEE1DADDED071A34EE2C4AD3
:1085F0007CEE266A61EE85CA25EEE1CADDED041A3D
:1086000077EE81EA77EEC17AE9EEA2FADDED032A90
:10861000A9EE80FA9DED030AAAEEA4EADDED014A77
:10862000AAEE82DA9DED012AE8EEA5CADDED025A36
:10863000A8EE85CA9DED025A21EEAD1A62EE832A9C
:108640006EEEE11A27EEC00A64EEA34A26EEC22AB5
:1086500065EE865A24EE455AABEE2E1AEBEE2D1A35
:10866000E8EE272AA8EE030AEAEE264AAAEE232A13
:10867000E9EE045AA9EE065A37EE207A87ED007A21
:108680001F44C2ED00FA82ED01FA1A440CED01EA32
:108690008CED00DA9C44C4ED00CA84ED01CA1C4490
:1086A00081ED001AC1ED011A1944C6ED002A86EDCC
:1086B000010A1E44C0ED005A80ED015A1844C5ED70
:1086C000004A85ED012A1D443FF6E4AE1099089A50
:1086D0000831013210910F99089208310F910E99CB
:1086E00008310E910D9908310D910C9908310C91BA
:1086F0000B9908310B910A9908310A9109990831AF
:108700000991139991427FF468AE149B8A46DB006D
:108710009BB214932EE519B0BDEC108BBDE8F08F21
:1087200010480023024611780632032915D0013380
:10873000062BF8D1426A052A0ED002EB4203013221
:1087400000EB43034262032040F2EB3140F2FF3280
:10875000187059809A807047704703EB430300EB11
:108760004303F0E728160120124B30B49D6A6B6A70
:1087700028B943EA01430020AB6230BC7047AC6AC1
:10878000013803EB14440BD0002303F14002013302
:1087900005EB8202DBB25268834204EB1244F4D34D
:1087A000403044EA014405EB80004460002030BCC6
:1087B000704700BF281601202A4840F2E932D0F85D
:1087C00088148B68013A13F0020F92B20ED0FF2288
:1087D00040F2E9330A7300E01BB38A68013B12F0F0
:1087E000010F9BB2F8D0C868C0B27047002AE8D128
:1087F0001D4B994208D0A3F5784399422DD003F53B
:10880000806399422BD10222D82303FB0203B3F8E1
:10881000AC24013292B2A3F8AC24B3F8AC0480B219
:10882000E2E7114A914207D0104B994211D003F56B
:10883000806399420FD10223D82202FB0303B3F8CD
:10884000AC24013292B2A3F8AC24B3F8AC04C0B2A9
:1088500070470123F0E7FF2070470122D4E74FF073
:10886000FF30C1E7281601200030014000380040E9
:10887000037870B42BB30246C0F10105531912F806
:10888000014FDBB2002CF9D101335B000E4C032207
:108890000B8084F8003884F80128017879B102232C
:1088A00000265A1CE518023354FA82F285F80018A3
:1088B000DBB282F8006810F8011F0029F1D170BC0A
:1088C00070470223E2E700BF28160120F0B40F4BE7
:1088D000C40800F0070700221E5D03EBD005BE4070
:1088E000F6B2C7F1080300278B4228BF0B46C3F13D
:1088F00008049A40C91A46FA04F415F8016F42EACE
:108900000402EED11046F0BC704700BF941A01205B
:1089100030B5EFF31181802383F312880A4AD2F82D
:108920000039D2F80449D2F80009D2F80459CAB281
:1089300082F31188013BA84294BF4FF400600020ED
:108940001B1B184430BD00BF28160120012380F8EE
:1089500051307047014BD3F80809704728160120A1
:1089600001207047024BC3F80C29C3F81019704757
:1089700028160120024BC3F81429C3F818197047B0
:10898000281601207047704710B4054B04460A684A
:108990000020C3F81C495DF8044BC3F80829704750
:1089A00028160120212870B505D0222829D020289A
:1089B00010D0002070BD0029FBD0072AF9D1184B38
:1089C00018791C685A799B79087100200C604A71EB
:1089D0008B7170BD0029ECD0072AEAD11148104BE9
:1089E0000C680E794D79D0F8102989791C601E71B8
:1089F0005D719971002ADCD02146D0F80C099047AE
:108A0000D7E70029D5D0022AD3D1064AD2F818399F
:108A1000002BCED00988D2F814099847C9E700BFC7
:108A200000000120281601200020704703460A227A
:108A300001481A80704700BF0800012003466422E5
:108A400001481A80704700BF14000120012901D09D
:108A500000207047014BD3F89030184700000120E8
:108A6000012901D008F0BCBB014BD3F88C3018476A
:108A700000000120014BD3F8883018470000012086
:108A800010B40B780A46044603F00303012B05D00B
:108A9000022B0BD000205DF8044B70478B8843B944
:108AA000204611465DF8044B0BF0A8BE8B88832B43
:108AB000F6D0034B5DF8044BD3F88030184700BF65
:108AC0000000012038B5054B04460D46DB6F984782
:108AD0002946204608F0AEFF002038BD00000120E6
:108AE00038B5054B04460D469B6F984729462046EE
:108AF00009F01CF8002038BD00000120F0B400246B
:108B000052004E1C2746030FB0F1204F4FEA0010D1
:108B100003F1300503F1370334BF0D550B553755BD
:108B20000234A242EFD1F0BC704700BF024808B542
:108B3000FFF79EFE014808BD0C5A0608281E0120BA
:108B4000024808B5FFF794FE014808BD1C5A060804
:108B5000281E01200B481A220B4B00681B680A8054
:108B6000C01801D109487047094B0822094910B5BE
:108B70001C68FFF7C3FF042207492046FFF7BEFF2A
:108B8000024810BD107AF01F187AF01FB0000120C3
:108B9000147AF01FB2000120C2000120024808B57B
:108BA000FFF766FE014808BD285A0608281E012066
:108BB00008B520B90448FFF75BFE044808BD044827
:108BC000FFF756FE014808BD345A0608281E01204A
:108BD000585A0608042301480B807047CC00012036
:108BE00098B182680C4B12B107229A7070471878BE
:108BF0000421DA6003281A611A750CBF80224FF431
:108C000080729970C3E901227047034B012241F23F
:108C1000D4515A705A547047A84E01200378022B41
:108C20000FD0006908B9012070470D4B1B78032B4A
:108C300010D080B24FF6F773984294BF0020012005
:108C40007047084A43681268B3EB422F2CBF0120DB
:108C500000207047044B984294BF002001207047C9
:108C6000A84E0120E8640120F7FFFF0F30B403781D
:108C7000022B13D0104A41F23864436841F230614C
:108C8000155941F22C6400692B4051580238125991
:108C90005B0A01FB003030BC10447047064B41F2C8
:108CA0002464426803F5B1511B59086800EB430086
:108CB00030BC00EB52207047A84E0120004870479E
:108CC0007C1A0120034B93F85004032894BF002022
:108CD0000120704728160120002310B50F4CC4F85E
:108CE0004C34FFF769FDFD21D4F888044EF088FE6E
:108CF000FFF762FDFF2808D1FFF75EFDFF2804D1D2
:108D00000423022084F8503410BDD4F8202909230C
:108D10000020C4F8402484F8503410BD28160120E7
:108D2000034B93F85004003818BF0120704700BF70
:108D30002816012003680B4A23F040039042036089
:108D40000DD0094B98420AD01022036823F0380353
:108D500013430360036843F0400303607047082235
:108D6000F3E700BF00380040003C004010B5094C5C
:108D7000D4F88824936813F4C05FFBD193681B0672
:108D8000F8D40A2038F03EFFD4F89004BDE8104033
:108D90003AF026BC2816012070B5092405460E4677
:108DA000FFF70AFDFF2803D1013CF9D1012070BD76
:108DB000FE2801D0022070BD064833462A46002115
:108DC000D0F888044EF06CFDFFF7F6FCFFF7F4FCDA
:108DD000002070BD2816012030B5952383B00824EB
:108DE0000A0E05468DF8053040F040000B0C8DF85A
:108DF0000410E1408DF800008DF801208DF802305C
:108E00008DF80310FFF7D8FCFF2802D0013CF9D100
:108E100075B90949062300220924D1F88804694656
:108E20004EF03EFDFFF7C8FCFF2802D1013CF9D10E
:108E3000FF2003B030BD00BF281601202DE9F84304
:108E40001C4C05468946904694F850641F46042EF3
:108E500008D0082E02D00020BDE8F883FFF73CFFC1
:108E60000228F8D1D4F890043AF0B4FB94F84634D0
:108E7000B3B969021120FFF7AFFFB8B90522D4F8E2
:108E800020390120C4F82C94C4F83054C4F8388434
:108E9000C4F83C7484F85024C4F84034BDE8F88326
:108EA00029461120FFF798FF0028E7D0FFF75EFF63
:108EB000D1E700BF281601202DE9F84F574B984203
:108EC00011D003F568530833984269D00023544AFF
:108ED0001846A2F87C39A2F88839C2F88039C2F85D
:108EE0008439BDE8F88F4E4C4FF0000B02224D4EF6
:108EF00004F62815D9464FF4007A4FF48078C4F868
:108F00002429D6F8D020012759465A45BB4403D01E
:108F1000D4F8980944F0CAFA4FF4803394F89C19B5
:108F20004FF00072D4F8980985F82410B721A5F8FD
:108F300004A0A5F8108085F81290A5F806802F7679
:108F40002862C5E9023244F0ADFCD4F82429364B3E
:108F500093456F7645F8283BD3DB84F88A99D4F89B
:108F600024390120D4F83419B4F82C29D4F8305914
:108F700012FB03F201FB03F3B4F83869A4F87C296F
:108F8000C4F88439B4F82E29284BC4F8A019C4F8C1
:108F90008059A4F88869A4F87E29C4F87839A0E734
:108FA0001F4C02224FF0000B1E4E04F628154FF402
:108FB000806A4FF040094FF40068C4F82429D6F8BD
:108FC000D020012759465A45BB4403D0D4F898090C
:108FD00044F06CFA4FF00062D4F898194FF4003066
:108FE00094F89CC9296285F824C0A5F804A0A5F8C6
:108FF0001090A5F80680AF74C5E90202FFF790FB58
:1090000028466F7644F09CFBD4F82429084B9345FE
:1090100045F8283BD3DB84F88A79A0E71971EF0083
:10902000281601200000012060D40508B8D40508E6
:109030008CD405082DE9F843884600294FD04718FD
:10904000461E284C802507F1FF39EFF3118185F387
:109050001288D4F80029C9B2D4F80409D4F8003928
:10906000D4F804C981F31188634594BF4FF40063B9
:109070000023121A1344012B1AD1012036F0ACFD43
:10908000EFF3118185F31288D4F80029C9B2D4F81E
:109090000409D4F80039D4F8047981F31188BB426B
:1090A00094BF4FF400630023121A1344012BE4D041
:1090B000EFF3118285F31288D4F80439D2B216F88E
:1090C000011F234483F8A419D4F804390133C3F3EE
:1090D0000A03C4F8043982F311884E45B5D14046DD
:1090E000BDE8F88328160120F8B5002390F8505009
:1090F00080F85030D5B10F4A92F82023032A17D1B7
:109100000D4E00F13C04D6F8207929462046FFF7A1
:1091100091FFD6F820392D1A0444DB1B322B01D8DD
:10912000002DF2D1B5FA85F04009F8BD0120FCE729
:109130001846FAE72027012028160120002280F88F
:109140005120D1E790F85020531C0244DBB280F844
:10915000503082F83C1090F851200AB1132B00D9FE
:10916000C2E77047F8B50C4B0D46144693F8203310
:10917000032B0FD1094ED6F82079002C0ADD2146A9
:109180002846FFF757FFD6F82039241A0544DB1B81
:10919000322BF2D9F8BD00BF20270120281601206C
:1091A0002DE9F0414379424C002B14BF01220022EB
:1091B00084F87C2403D184F85034BDE8F08190F821
:1091C000018005460F4608F1FF3676B230463AF088
:1091D000C9FE0223C4F8880484F884342B78002B59
:1091E00041D1ED789DBB4FF48071D4F88804C4F868
:1091F00090544CF0A5F94FF47A7036F0EDFCD4F8A9
:1092000090043AF0EDF900220A23D4F888041146BC
:109210004EF046FBD4F88814264B8A6812F4C05FDF
:109220000BD18A6812F0800207D1D4F820190123EB
:1092300084F84424C4F84014BDE7013BEDD194F810
:10924000442484F85034531C84F84434B5E7284649
:109250003AF090F8054608B11E23C3800D21284638
:109260003AF072F9BFE706EB8606414600203E441D
:1092700096F9032039F09EFE064630B140684DF065
:109280004DFCB26884F89C2418B9002384F8943407
:10929000A7E7431E0849002201EB43131721C4F836
:1092A00098344DF04BFC012384F8943499E700BFC7
:1092B00028160120A1860100D400012010B503204A
:1092C0000C464EF07BF803280AD0074B93F858332E
:1092D000012B4FF012030CBF04480548238010BD3A
:1092E00012230448238010BD20270120FC02012006
:1092F000E8020120D40201202DE9F04FDFF8D082EE
:10930000A74D4446A74F2DED048B89B0CDE904014C
:1093100003920FCD0FC40FCD0FC495E8070097F847
:109320005E3384E80700042B00F20081DFE813F0CD
:10933000E200FE00DD000500F000DFED9B7ADFEDCE
:109340009B8A9B4A9B4B03989B49002818BF134656
:109350009A4AC8E9062138EEA77A9FED998AF5EE78
:10936000006ADFF880B227EE888A964E0BF111056D
:109370004FF00009C6EE879A9FED939AC8F8243003
:10938000059B4B4540F3AB801BF8014B09F10102F3
:10939000002C00F0F880002103E00131152900F0D5
:1093A000F28001EB41004B0015F800C0A445F4D158
:1093B000384490F87513CDE90632002900F0ED80AD
:1093C000204636F0A1F8824600684CF017FE9AF865
:1093D000051036F0B5F80078002840F0D4804FEA48
:1093E000141E069B04F00F0C079A0EF1FF34F918B7
:1093F0000323052C81F8B52381F8B43300F2BD8036
:10940000724901EB4401B1F8B00040FA0CF111F0DF
:10941000010100F0B4800121069201FA0CF101393A
:10942000084051F099FA694BDFF8BCC102211C4495
:10943000069A032394F8BC4020440CEBC0007061F2
:109440008371C2719AF8092039F0E8FE039B002B62
:1094500071D0B7F85C3397F85E1307EE903AD7F8FF
:10946000E0360429F8EEE77AFCEEE77A17EE900A88
:10947000B3FBF0F202F57F4202F1FF024FEA124223
:10948000B3FBF2F2B2FBF0F083B269D007EE902AA0
:10949000F8EE676A66EE887A29EE677A97F85F03D6
:1094A000049901903046A8EEA67A00915146C6ED87
:1094B000027A86ED037A28F077FAD8F83830D8F8AF
:1094C0005020B9F1000F5CD09B1A18BF0123012274
:1094D0003374183606F8072CB9F1000F5BD03C48FE
:1094E00009B0BDEC048BBDE8F08FDFED3A7AF0EE09
:1094F000678A26E70023304A0121DFED317A0493A1
:109500002E4BF0EE678A0391C8E90632284B22E71A
:109510000023294A0121DFED307A0493274BF0EE36
:10952000678A0391C8E90632214B14E7DFED2B7AF5
:10953000F0EE678A05E7FAFE697AFCEEE77AD7F87B
:10954000E0164FF6FF7317EE902A1846B1FBF2F2C1
:109550001A44120CB1FBF2F297F85E13042995D16C
:1095600007EE900A9FED167A06EE902AF8EE677ADB
:10957000F8EE666A67EE877A8EE7706166E771617A
:1095800064E70123A3E7164A0020094BC8F81C2012
:10959000C8F82430A4E79146F2E60B68FFDE00BF6E
:1095A000E4D4050820270120ACC5A737ACC5A736F1
:1095B000D1010408C9040308E1060308DD01040819
:1095C0006F12833A4800002000007A4460D40508F6
:1095D0001400002028293038000000006F120339E1
:1095E0009D050308832A0120002B012010B509F0F6
:1095F00057F8104C58B194F85034032B13D894F802
:1096000044340133DBB2072B84F8443403D90023FC
:1096100084F8503410BDD4F820290123C4F8402424
:1096200084F8503410BD4FF48071D4F888044BF0A6
:1096300087FFE4E72816012070B51F4C06460D464B
:1096400094F85034042B09D0082B25D1D4F8483491
:1096500083422FD0FFF740FB02281DD1D4F890049D
:1096600039F0B8FF00213720FFF7B6FB2946172055
:10967000FFF7B2FBC0B994F846347BB971021920E8
:10968000FFF7AAFB80B908230220C4F84C54C4F8A1
:10969000486484F8503470BD012070BD31461920F3
:1096A000FFF79AFB0028EED0FFF760FBFFF79EFF65
:1096B000032070BD022070BD281601202DE9F04363
:1096C000054691B00E4690461F464A4C94F8500409
:1096D00004280ED0082808D1D4F84834AB4200F052
:1096E0008480FFF7F9FA0228F0D0012011B0BDE81C
:1096F000F083D4F8900439F06DFF94F84634002BD1
:1097000063D169021820FFF767FB002867D194F83E
:109710005094FFF751F8B9F1080F0CBFFC21FE215E
:10972000D4F888044EF06CF994F89424002A4ED0B2
:1097300094F89C240021D4F888344FF0400E52064F
:109740004FF4806C4FF400700C330A92D4F89824D4
:10975000CDF80CE0CDF818C009900491106805917F
:109760000F91CDE90711CDE90B11CDE90D11117A5A
:10977000CDE9013609F062FBD4F8983401AA197AD0
:10978000186809F015FBD4F898341B491A7A186840
:10979000895CD4F88824435843F00103435053684C
:1097A00043F002035360012206230020C4F82C6416
:1097B000C4F83054C4F83884C4F83C7484F83424B1
:1097C00084F8503411B0BDE8F08329469AE74FF48D
:1097D00080733146D4F888044EF062F8E3E7FFF76F
:1097E000C5FAFFF703FF032080E7FEF7E5FFFC2142
:1097F00096E700BF28160120ECD905082DE9F047AF
:10980000CC4C86B094F87C64002E00F08C8194F8E7
:109810005024002704F26C48531E082B5CD8DFE864
:1098200013F06C00940022015B0049000900D30092
:109830005B00BF0094F89424002A40F07D8194F8E6
:1098400034544FF48073D4F82C14D4F8880401EB0A
:1098500005214EF025F894F834340133DBB2022BA5
:1098600084F8343435D1D4F8880400E0C3688368C0
:10987000DB07FBD400214EF0C3F80021D4F88804A4
:109880004EF0BEF8FEF798FF00F01F00052800F02C
:109890001D82FFF7ABFED4F83854002D00F0A781ED
:1098A0000022D4F83C34D4F830140120A84794F8AE
:1098B0005024B1E74FF40071D4F82C04FFF76CFA90
:1098C000012800F07B81022800F08081002800F050
:1098D000948194F85024531EDBB2022B00F21981BC
:1098E000D4F82039D4F840249B1AC82B00F24B81BD
:1098F0000026304606B0BDE8F087D4F8900439F071
:1099000069FE00210846FFF767FA0546FFF72EFAC1
:10991000012DDED1D4F8900484F8457439F05AFE54
:1099200040F2AB110820FFF757FA052800F06281DA
:10993000012800F03381FFF719FA94F84534002B21
:1099400000F0C081022384F85034D4F8900439F038
:1099500041FE94F8453400213720022B0CBF4FF014
:1099600080450D46FFF738FA29202946FFF734FADB
:109970000546FFF7FBF9002DABD194F84534022BD7
:1099800000F0608184F84654D4F8900439F022FE47
:1099900000210920FFF720FAB0B3FFF7E7F998E7B5
:1099A0000825FEF709FFFF2800F0A881013DF8D146
:1099B000D4F84034D4F82029FA33934289D2FFF7FF
:1099C00015FE94F8502427E7FEF7F6FEFF284FF027
:1099D000080505D0013DEBD0FEF7EEFEFF28F9D1DA
:1099E000D4F84C340022012B84F8442440F28C81BA
:1099F000D4F84824013B08210132C4F84C3484F8DF
:109A00005014C4F8482474E710214046FFF7C4F905
:109A100005460028C1D101217F20FEF757FF01280C
:109A20008146BAD128460221FEF750FF002800F0F7
:109A30002A810128B1D116213A20FEF747FF0130D3
:109A40008002C4F85404FFF791F9D4F8900439F077
:109A5000C1FD00210A20FFF7BFF9002840F00C816A
:109A6000032384F85034102102A8FFF795F9002849
:109A70007FF42FAF9DF815309DF816201B019DF83F
:109A800009009DF80A5002F00F01DBB245EA0025FB
:109A9000DDF8110043EA12139DF8102000BA84F893
:109AA000681403F5FA639DF80B10C4F86004A4F879
:109AB000663413099DF8080002F00F0284F864343C
:109AC000039BA4F85854C4F85C3484F8652484F8E3
:109AD0005A0484F85B14FFF749F994F8463473B9D3
:109AE000D4F8900439F076FD4FF400711020FFF7A0
:109AF00073F90546FFF73AF9002D7FF460AFD4F80B
:109B00008804FFF717F900230422C4F84C3484F8C2
:109B10005024042A18BF082A0CBF0126002630460C
:109B200006B0BDE8F087304684F8506406B0BDE862
:109B3000F08700BF28160120D4F89824137C106801
:109B40001F2B73D9203B202241689A4011403FF4DB
:109B5000CFAE1021C26001FA03F3C360D4F88804C9
:109B60008368DD0703D5C3688368D907FBD483689E
:109B700013F4C05FFBD183681A06F8D4436823F05E
:109B80000203436073E6FFF731FD94F85064082E3A
:109B900018BF042E0CBF01260026AAE6042302AA41
:109BA0000021D4F888044DF07BFE9DF80B30AB2BE0
:109BB0007FF4C1AE022384F84534BCE6D4F84034C7
:109BC000D4F8202964339342BFF483AEFFF7CEF874
:109BD000FFF70CFDD4F838544DB10022D4F83C34D2
:109BE000D4F830141046A84794F8502414E694F89A
:109BF000502411E684F845549DE60190FFF7B6F82D
:109C000004230198D4F8385484F8440484F8503478
:109C1000002D3FF46EAED4F83C34D4F82C24D4F8A4
:109C20003014A84794F85024531E55E620220168AA
:109C30009A4011403FF45CAE1021826001FA03F3B8
:109C400083608BE7D4F8900439F0C4FC29463A20AD
:109C5000FFF7C2F829460546042302AAD4F888046F
:109C60004DF01EFE45B9FFF781F8029B1BBAC3F306
:109C7000807384F8463487E6FFF778F8FFF7B6FC80
:109C800094F85024C8E504212C20FEF71FFE032180
:109C900005464E20FEF71AFE82460C213620FEF7BE
:109CA00015FE0AF1020A431C09FA05F503FA0AF344
:109CB000A3FB0501430A43EAC153C4F85434FFF738
:109CC00055F8C2E61E4684F8503412E60722D4F84E
:109CD0002039D4F8386484F85024C4F84034002E75
:109CE0003FF407AED4F83C340120D4F82C24D4F847
:109CF0003014B04794F85024531EEDE5FFF736F8C2
:109D0000042384F85034F4E508D0042384F8503454
:109D1000FFF72CF894F85024531EDDE5FEF7DCFF26
:109D200002287FF4D6AD38E6154BDB68C3F3022377
:109D300010B4C3F107041A1D042C28BF0424062AFA
:109D40004FF0FF328CBF033B0023A240002821EAE2
:109D5000020101FA03F108DB09010A4BC9B203440D
:109D600083F800135DF8044B704700F00F00090101
:109D7000054BC9B2034419765DF8044B704700BF28
:109D800000ED00E000E100E0FCEC00E030B5284C24
:109D90000022284841F28731D4F8E03683B0264DBE
:109DA000A0FB030304F2E460C4F8F016DB0CC4F873
:109DB000F426C4F8EC26013BC4F8E456C4F8E836AF
:109DC00009F090FE1D4B062137201A6C42F020024C
:109DD0001A641B6C03F020030193019BFFF7A4FF9F
:109DE000D4F8E4364FF400001549164A4860D968A3
:109DF00041F00101D96099680A40062A06D0B2F5FF
:109E0000803F03D01A6842F001021A600E4B002016
:109E1000D4F83C2303F6A4140C49C2F81002C3F88A
:109E20001809C3F81009C2E9811403B030BD00BF9E
:109E30002027012083DE1B4300140040003802402D
:109E400000E100E00700010028160120442E012057
:109E500038B50F4B0F4AD3F8E036A2FB03239B091A
:109E6000013BB3F1807F10D20B4A0024F0200B4954
:109E70000725536081F82300214694604FF0FF309E
:109E80001560FFF751FF204638BD012038BD00BFE7
:109E900020270120D34D621010E000E000ED00E02B
:109EA0002DE9F04FC14C83B0054694F8241FD4F837
:109EB0002C0F6F1EC1F3400139F098FB94F8241F5A
:109EC000D4F8280FC94301F0010139F08FFBFBB230
:109ED0000193002D00F0D080B54E4FF01009DFF84F
:109EE000D882B44DD4F82C0F39F064FBD4F8280F85
:109EF00039F060FBB4F8343F002B40F04E8194F809
:109F0000361FD4F8380F39F071FB4FF0FA0A4FF4CE
:109F10007A710120D8F80430C3F30803002B40F015
:109F20000F81EFF31183002B40F00A81D6F820292E
:109F3000D5F808C0D6F820399A42F7D1D4F85C3F5A
:109F40009C45F3D8D4F8587F01FB07F3A3EB0C032F
:109F5000B3FBF7F301FB0232D8F80430C3F3080374
:109F6000002B40F0AB80EFF31183002B40F0A68074
:109F7000D6F82039D5F808B0D6F82079BB42F7D109
:109F8000D4F85C7FBB45F3D8D4F8587F01FB07FCBD
:109F9000ACEB0B0CBCFBF7FC01FB03C39B1AB3F54A
:109FA0007A7FD9D3BAF1010AB4D1D4F82C0F39F0A1
:109FB00001FBD4F8280F39F0FDFAB4F8343F002B38
:109FC00040F0DF8094F8361FD4F8380F81F001019B
:109FD00039F00CFBFA204FF47A714FF0010CD8F8ED
:109FE0000430C3F30803002B40F08980EFF31183A2
:109FF000002B40F08480D6F82029D5F808E0D6F868
:10A0000020399A42F7D1D4F85C3F9E45F3D8D4F872
:10A0100058AF01FB0AF3A3EB0E03B3FBFAF301FB0A
:10A020000232D8F80430C3F3080343BBEFF31183C3
:10A030002BBBD6F82039D5F808B0D6F82079BB422A
:10A04000F7D1D4F85C7FBB45F3D8D4F858AF01FB07
:10A050000AFEAEEB0B0EBEFBFAFE01FB03E39B1AFE
:10A06000B3F57A7FDDD30138B9D1019B5F1EFBB216
:10A07000FF2B01937FF436AF03B0BDE8F08FEFF311
:10A08000118A89F31288AF682B68DB0302D5C4F804
:10A0900054CFAF68D6F820395FFA8AFAD4F854EF73
:10A0A0008AF31188D4F858AF734401FB0AFEAEEB73
:10A0B000070EBEFBFAFE01FB03E3D0E7EFF3118EC0
:10A0C00089F31288D5F808B02B68DF0303D5C4F8EC
:10A0D000540FD5F808B0D6F820395FFA8EFED4F8C0
:10A0E00054CF8EF31188D4F8587F634401FB07FCEA
:10A0F000ACEB0B0CBCFBF7FC01FB03C34EE7EFF32F
:10A10000118E89F31288D5F808A02B68DA0303D5DD
:10A11000C4F854CFD5F808A0D6F820395FFA8EFEDF
:10A12000D4F8542F8EF31188D4F858EF1A4401FB59
:10A130000EF3A3EB0A03B3FBFEF301FB023270E75D
:10A14000EFF3118C89F31288D5F808E02B68DB0354
:10A1500003D5C4F8540FD5F808E0D6F820395FFAD3
:10A160008CFCD4F8542F8CF31188D4F8587F1A44FF
:10A1700001FB07F3A3EB0E03B3FBF7F301FB023282
:10A18000EAE6D4F8503F002B3FF424AFD4F83C3F2C
:10A19000C3F800A084F84DAF1CE7D4F8503F002B63
:10A1A0003FF4B3AE37F070FEAFE600BF20270120CA
:10A1B0002816012010E000E000ED00E02DE9F04F4E
:10A1C000BD4C83B00523BD4E94F8241F4FF01009F9
:10A1D000D4F82C0FC1F34001019339F007FA94F839
:10A1E000241FD4F8280FC943DFF8D882B44D01F0FA
:10A1F000010139F0FBF9D4F82C0F39F0DBF9D4F870
:10A20000280F39F0D7F9B4F8343F002B40F04C81D7
:10A2100094F8361FD4F8380F39F0E8F932274FF4A4
:10A220007A710120D8F80430C3F30803002B40F002
:10A230000F81EFF31183002B40F00A81D6F820291B
:10A24000D5F808C0D6F820399A42F7D1D4F85C3F47
:10A250009C45F3D8D4F858EF01FB0EF3A3EB0C03A5
:10A26000B3FBFEF301FB0232D8F80430C3F308035A
:10A27000002B40F0AB80EFF31183002B40F0A68061
:10A28000D6F82039D5F808B0D6F820C96345F7D1FB
:10A29000D4F85CCFE345F3D8D4F858EF01FB0EFCBB
:10A2A000ACEB0B0CBCFBFEFC01FB03C39B1AB3F530
:10A2B0007A7FD9D3013FB5D1D4F82C0F39F07AF990
:10A2C000D4F8280F39F076F9B4F8343F002B40F079
:10A2D000E08094F8361FD4F8380F81F0010139F08E
:10A2E00085F932204FF47A710127D8F80430C3F38E
:10A2F0000803002B40F08B80EFF31183002B40F01C
:10A300008680D6F82029D5F808E0D6F820399A4278
:10A31000F7D1D4F85C3F9E45F3D8D4F858AF01FB91
:10A320000AF3A3EB0E03B3FBFAF301FB0232D8F8F6
:10A330000430C3F3080343BBEFF311832BBBD6F800
:10A340002039D5F808B0D6F820E97345F7D1D4F80C
:10A350005CEFF345F3D8D4F858AF01FB0AFEAEEB3F
:10A360000B0EBEFBFAFE01FB03E39B1AB3F57A7FEB
:10A37000DDD30138B9D1019B5F1E17F0FF030193B4
:10A380007FF439AF03B0BDE8F08FEFF3118A89F3A2
:10A390001288D5F808B02B68DB0303D5C4F8547FC6
:10A3A000D5F808B0D6F820395FFA8AFAD4F854EF15
:10A3B0008AF31188D4F858AF734401FB0AFEAEEB60
:10A3C0000B0EBEFBFAFE01FB03E3CEE7EFF3118EAB
:10A3D00089F31288D5F808B02B68DB0303D5C4F8DD
:10A3E000540FD5F808B0D6F820395FFA8EFED4F8AD
:10A3F00054CF8EF31188D4F858EF634401FB0EFC60
:10A40000ACEB0B0CBCFBFEFC01FB03C34EE7EFF314
:10A41000118E89F31288D5F808A02B68DA0303D5CA
:10A42000C4F8547FD5F808A0D6F820395FFA8EFE1C
:10A43000D4F8542F8EF31188D4F858EF1A4401FB46
:10A440000EF3A3EB0A03B3FBFEF301FB02326EE74C
:10A45000EFF3118C89F31288D5F808E02B68DA0342
:10A4600003D5C4F8540FD5F808E0D6F820395FFAC0
:10A470008CFCD4F8542F8CF31188D4F858CF1A449C
:10A4800001FB0CF3A3EB0E03B3FBFCF301FB023265
:10A49000EAE6D4F8503F002B3FF423AFD4F83C3F1A
:10A4A0001F6084F84D7F1CE7D4F8503F002B3FF429
:10A4B000B5AE37F0E9FCB1E62027012028160120CF
:10A4C00010E000E000ED00E02DE9F041D0F800E000
:10A4D0000C46DFF8588084B0DEF804501746DFF8E9
:10A4E00050C0194605EA0805DDF8288006460393A2
:10A4F0002C43424644EA0C0CCEF804C00AF070FF2C
:10A5000078B931680246039B30468F624021CDF80E
:10A5100000800AF095FF003818BF012004B0BDE8A4
:10A52000F081012004B0BDE8F08100BF009800FC7C
:10A5300000200180F8B5144F04460D460BE09B69DE
:10A54000DB0602D50AF00CFFE0B9D7F8603F5B1BD1
:10A55000B3F5805F09D823682A464FF4805120461E
:10A560009E69B606EBD50020F8BD636C2021002261
:10A5700001200B4384F84020636484F8411084F880
:10A580004220F8BD0120F8BD2027012018B100228B
:10A59000012138F043BE704718B10022202138F065
:10A5A0003DBE70472DE9F8436E4E00254FF4F07222
:10A5B000202106F668736C4C074686F8645F1846DF
:10A5C00052F00CFE4FF4F07200F5F070202152F0C2
:10A5D00005FE94F8310210B194F832221AB9002520
:10A5E0002846BDE8F88338F0C5FE8046C4F840022E
:10A5F00038F0D2FF05460028F1D0B8F1000F02D0A4
:10A600002323A8F806300D21404638F09DFFD4F8EA
:10A61000400238F0E5FF94F83202DFF85481013847
:10A6200040B239F09FFC02232021C4F8380284F89C
:10A6300034324AF085FFB8F80E134C4839F08AFBE3
:10A64000D4F8400238F0C6FFFF218C2049F02CF8E6
:10A650008146D4F8400238F0C3FFD4F83802FEF740
:10A6600069FBB9F11B0F05D0D4F840020025FFF7B4
:10A6700093FFB5E70122D4F8403286F8642F0BB17E
:10A680002322DA80B8F80E13384839F063FBD4F887
:10A69000400238F09FFF40210A2049F005F8FF21D1
:10A6A0008A2049F001F80346D4F84002C3F380132E
:10A6B00084F8443238F094FFD4F83802FEF73AFBBD
:10A6C00094F83032012B43D0022B39D0E3B394F805
:10A6D0004532182B09D194F84422B8F80E33A4F867
:10A6E0004872A4F84A22A4F84C32B8F80E131F4856
:10A6F00039F030FBB8F80E131C4839F02BFBD4F8B6
:10A70000400238F067FF0221002048F0CDFFD4F866
:10A71000400238F065FFD4F83802FEF70BFB94F8DE
:10A72000552294F85632C2F1200294F85412C3F123
:10A73000100384F8572284F8583284F850124FE7F7
:10A740001023A8F80E33C2E72023A8F80E33BEE783
:10A75000002FF5D094F84432002B14BF102320238F
:10A76000EFE700BF20270120183801204C3A0120D4
:10A770000000012000487047602B012058B18388F9
:10A780004FF00042B3FA83F332FA03F303D00249E5
:10A790000A6813430B607047003C0140002800F03A
:10A7A0008F80B0F804C0BCFA8CF3202BC3F11F02D9
:10A7B00000F086806F4B2DE9F04F9D18DFF8E481A3
:10A7C00085B0036808EB820095F8C4200024DFF808
:10A7D000D8E10192C0F85C12674A02E00134102C03
:10A7E00065D04FF0010909FA04F10CEA010531EADC
:10A7F0000C01F3D14FF0030A04FA09F718684FF07F
:10A800000F0B0AFA07F704EA0A0124F0030620EA0C
:10A810000700890006F1804618600BFA01F0D3F8B2
:10A820000CB006F59C362BEA0707DF60DEF84470B3
:10A8300047F48047CEF84470DEF8447007F4804750
:10A840000397039FB76827EA00004C4FBB421AD01A
:10A8500007F58067BB4234D0494FBB4235D0494FE2
:10A86000BB426BD0484FBB4271D0484FBB4269D00E
:10A87000474FBB4278D0474FBB420CBF0727082742
:10A8800007FA01F10843B06001341168102C41EA65
:10A8900005011160516821EA05015160916841EAA2
:10A8A00005019160D16821EA0505D56099D1019B28
:10A8B000984498F89C32F02B0CD805B0BDE8F08F86
:10A8C000704709FA01F10843DDE7022707FA01F1B1
:10A8D0000843D8E7F021304B264888F89C12D96805
:10A8E000019AC1F302210244C1F107000B1D92F845
:10A8F000D440042892F9D42028BF0420062B4FF01E
:10A90000FF338CBF033900218340002A6FEA030321
:10A9100003F0030303FA01F31EDB204801211B01AE
:10A9200004F01F0485185209DBB201FA04F485F81B
:10A93000003340F8224005B0BDE8F08F0AFA01F17B
:10A940000843A0E7052707FA01F108439BE704271E
:10A9500007FA01F1084396E704F00F041B01104ABF
:10A96000DBB222441376A8E7062707FA01F1084371
:10A9700089E700BF60D40508003C014000000240A8
:10A9800000080240000C0240001002400014024087
:10A9900000180240001C024000ED00E000E100E071
:10A9A000FCEC00E0183801200038024010B4B8B1C7
:10A9B0000D4CD4F8A432102B05D1052100205DF8F0
:10A9C000044B34F0C1BF03EB4302224482F8A912C6
:10A9D000012182F8A8020B4482F8AA12C4F8A4321A
:10A9E0005DF8044B704700BF183801202021C07863
:10A9F000DCE700BF2DE9F04FC14C002387B004F520
:10AA0000367894F8EC22C4F8D832C8E90133C8E9A2
:10AA100003331AB194F8ED3284F8D83294F8EE3258
:10AA20001BB194F8EF3284F8E73294F8F2321BB19C
:10AA300094F8F33284F8E23294F8F0321BB194F8CF
:10AA4000F13284F8DD3294F8F432013B4FFA83FAA4
:10AA5000DBB2BAF1FF3F029300F00881B022A949AE
:10AA6000A94D002302FB0A112E4605F12800DC3116
:10AA70001F469B46019352F03FFB039535785146A4
:10AA800028463AF0B5FB8146002840F0F2800137B5
:10AA90000536042FF2D14FF440329C4E00230121A1
:10AAA000C4F80C233046D4F80023039DC4F824B323
:10AAB000C4F82013C4F8181384F83813C4F81033FA
:10AAC000C4F8143384F82833C4F82C33C4F81C3386
:10AAD000C4F80823C4E9CC33FDF792FABAF1000FA9
:10AAE00040F0E680019B83F0010919F0FF0F40F070
:10AAF000DF80A6F108004EF07BFE012308F1140868
:10AB0000EA78002A40F01C810535A845F8D104EB0D
:10AB10000A030299022093F9FC2238F04BFA054609
:10AB2000002800F0A380002740684BF0F7FF0621C3
:10AB30003A46DFF8F8814CF001F8BBF1010F4FF411
:10AB400000638CBF4FF480613946D5E90102C4F837
:10AB500060134FF400554FF48071C4F85423C4F8C7
:10AB600064334FF400320323C4F850034046C4F862
:10AB70007473C4F87833C4F87023C4E9D677C4E991
:10AB8000DF77C4E9DA510BF049FA94F84433C4F89A
:10AB90004083012B0597C4F8886367D00123D4F85C
:10ABA000085384F84433AB68DE0714D4584B594932
:10ABB000D3F8E036AA68B3FBF1F342F0010203EBED
:10ABC0004303AA600593059B2BB1059B013B0593AD
:10ABD000059B002BF9D1AB68D80747D5D4F848239B
:10ABE0004D4B134043F48073C4F848336B685905E8
:10ABF00007D5D4F8483323F4405343F48053C4F8C2
:10AC00004833D4F8483313F4805340F02B81C4F810
:10AC10004C334248002342496FF02202C4F89003AB
:10AC2000404884F844335B46C4F88C1305F14C016A
:10AC3000C4F89C032A606E683B4A46F080663B4835
:10AC40006E60AE6846F48076AE600BF05FF9384B0C
:10AC50005A68D20640F01381D4F808339A6812F08B
:10AC6000405F03D19A6842F080429A6007B0BDE825
:10AC7000F08F284638F07EFBFB1D03210022DBB25B
:10AC8000CDF8049008B18371C27138F05DFC307862
:10AC90003AF0E0FA0BF1010386F802B05FFA83FBA9
:10ACA0004FF00703707033714FF00103F370EEE65D
:10ACB000B02200211F48482752F090FAB02200210C
:10ACC0001C4852F08BFA01231B4A4FF4403C0021F0
:10ACD0001A48C4F8B023C4F8B82384F8B473C4F88D
:10ACE000BCC3C4F8D033C4F8C83384F8E83384F85C
:10ACF000D813FDF785F90F484EF07AFDFDE600BF49
:10AD00001838012060D40508F03A0120203B0120CA
:10AD10002027012040420F00FEF8FFFFF11201083A
:10AD2000F5120108E112010878000020683B0120BB
:10AD300000230140C83B012000200140D03B0120FE
:10AD400094F8440300215A1C2F7901280491D2B2AF
:10AD500069783DD04FF00100092984F844034ED9A9
:10AD60004FF0030E6FF01D00D4F808C34FF0070931
:10AD70001EFB0100DCF80CE009FA00F907FA00F00C
:10AD80002EEA0907CCF80C70DCF80C703843CCF8CC
:10AD90000C00062B4FF005001CD86FF0040710FBC9
:10ADA0000373D4F808731F2000FA03FC786B01FAD0
:10ADB00003F320EA0C007863786B03437B63D4F8D9
:10ADC00008333E48834230D04FF0000384F84433C8
:10ADD000134699E60C2B32D86FF0220710FB037351
:10ADE000D4F808031F2707FA03FC076B01FA03F3E3
:10ADF00027EA0C070763076B3B430363DFE7D4F8DD
:10AE0000080301EB41094FF0070ED0F810C007FA14
:10AE100009F70EFA09FE2CEA0E0CC0F810C0D0F8A3
:10AE200010C047EA0C070761B3E7122921D01129A6
:10AE3000CAD123494B6843F400034B60C4E76FF069
:10AE4000400710FB0373D4F808031F2707FA03FC1D
:10AE5000C76A01FA03F327EA0C07C762C76A3B43D4
:10AE6000C362ACE7D4F84C3323F00603C4F84C3388
:10AE7000CFE613494B6843F480034B60A4E7D4F852
:10AE800008230E498A420DD05B68DB063FF5EEAE23
:10AE90000C4B9A427FF4EAAE9A6812F0405F7FF45E
:10AEA000E5AEDFE6936813F0405F03D1936843F0AB
:10AEB00080439360024B5B68D8E600BF00200140EE
:10AEC00000230140002201402DE9F041D0F800E0CC
:10AED0000C46DFF8588084B0DEF804501746DFF8DF
:10AEE00050C0194605EA0805DDF828800646039398
:10AEF0002C43424644EA0C0CCEF804C00AF070FA27
:10AF000078B931680246039B30468F628021CDF8C4
:10AF100000800AF095FA003818BF012004B0BDE89F
:10AF2000F081012004B0BDE8F08100BF009800FC72
:10AF3000002001810A4610B1022138F06FB9704734
:10AF4000034690F83C00012800F03E810220F0B456
:10AF5000012483F83D0083F83C40142A45D8DFE8FB
:10AF600012F04D004400440044007B0044004400C3
:10AF70004400DA00440044004400AA0044004400B5
:10AF80004400060144004400440015001A688E681D
:10AF9000156A0F6825F48015AB4C1562106A556868
:10AFA00020F40010D2F854C040EA0650A74E0CEA34
:10AFB0000404B24244EA072400F0088106F58066E2
:10AFC000B24200F003814E6855605465D665106248
:10AFD000506D0C6940F400605065506D20F4806045
:10AFE0005065516D41EA042151650022012110464E
:10AFF00083F83D1083F83C20F0BC70471A68D1F804
:10B0000008C0156A0F6825F00105914C1562106A99
:10B010005668956920F002002C408C4D40EA0C00E7
:10B02000AA4244EA070400F0DD8005F58065AA42E3
:10B0300000F0D8804D685660946155631062906945
:10B040000C6940F008009061906920F00400906164
:10B05000916921439161C8E71A68D1F808C0156A5F
:10B060000F6825F010057B4C1562106A56689569CB
:10B0700020F020002C40754D40EA0C10AA4244EA12
:10B08000072400F0C38005F58065AA4200F0BE8069
:10B090004D68566094619563106290690C6940F444
:10B0A00000609061906920F480609061916941EA4C
:10B0B0000421916199E71A688E68156A0F6825F472
:10B0C0008055644C1562106A556820F40050D2F81F
:10B0D0001CC040EA06305D4E0CEA0404B24244EA69
:10B0E000072400F08D8006F58066B24200F088806B
:10B0F0004E685560D46116641062D0690C6940F4E2
:10B100000060D061D06920F48060D061D16941EAEB
:10B110000421D16169E71A68D1F808C0156A0F687F
:10B1200025F480754A4C1562106A5668D56920F47A
:10B1300000702C40454D40EA0C20AA4244EA070426
:10B1400073D005F58065AA426FD04D685660D46112
:10B15000D5631062D0690C6940F00800D061D069F5
:10B1600020F00400D061D1692143D1613DE71A6824
:10B170008E68156A0F6825F48035374C1562106AA1
:10B18000556820F40030D2F854C040EA06402F4EF3
:10B190000CEA0404B24244EA07041DD006F58066B6
:10B1A000B24219D04E685560546596651062506D74
:10B1B0000C6940F008005065506D20F004005065A7
:10B1C000516D2143516510E70220704725F4802519
:10B1D0004E6945EA8625F6E625F480354E6945EA4E
:10B1E0000625DFE726F4407C20F008008E69CF6852
:10B1F0004D693843354320F0040045EA0C0619E751
:10B2000025F480454E6945EA861571E726F4406CC1
:10B2100020F080008E69CF684D6940EA0710354301
:10B2200020F040004CEA850632E726F4405C20F42A
:10B2300000608E69CF684D6940EA0720354320F4ED
:10B2400080604CEA051680E7FF8FFFFE000001409A
:10B250008CFFFEFFFF8CFFFE8FFFFEFF494B70B49B
:10B2600093F8602403EB0210110190F864040328A2
:10B270001CD8DFE800F00C1E023A5C18D4F8680411
:10B28000F8B1431E0020C4F8683470BC70473E4AD1
:10B2900092F89850002D5FD0A032002001E0854246
:10B2A0005AD014880130A032002CF8D0012070BC94
:10B2B00070475C18D4F868040028E2D1022084F8B2
:10B2C0006404194491F870040138C0B281F8700424
:10B2D00020B32E4B0120D3F8102302F2E733B3FB47
:10B2E000F2F370BCC1F8683470471944D1F868446F
:10B2F000002C42D193F8A4148A42D7D0013202F034
:10B300000300814283F86004D0D003EB00120223D3
:10B310002046C2F8684482F86434C8E71B4C501CCD
:10B320000326D1F86C24D4F8104393F8A454304089
:10B33000631E81F86464401B134418BF01209C42C3
:10B34000B3FBF4F288BF0020C1F868240028ADD018
:10B35000013AC1F86824AAE70C480B4442F20F7284
:10B360000124D0F8101383F8644420460A44B2FB49
:10B37000F1F270BCC3F868247047013C0020C1F8AA
:10B38000684494E7183801201400002000000120D0
:10B3900003689B0AA3F58013522B00D970470E4A0D
:10B3A000134470B593F8EC4284B00D2C12D80029E8
:10B3B0004FF0000309494FF0010514BF1E46022655
:10B3C000427901EB84106946CDE90065CDE902338D
:10B3D00008F078FA04B070BD60D40508C03C0120C4
:10B3E0000378012B01D00020704790F90420084910
:10B3F00002EB420201EB421292F8BD18202901D063
:10B4000018467047D2F87C389869C0F3C03070474E
:10B410001838012010B50B4C94F8E839022B10D1E4
:10B42000D4F8F40938F0DCF8D4F8F40908B1212391
:10B43000C380FFF7ABF810210348BDE8104038F097
:10B4400089BC10BD183801200042012073B50D4E93
:10B450000546FF230C460A46014630468DF8073064
:10B4600038F0FEFC01230DF1070245F08001304663
:10B4700038F0DAFC9DF80700031B5842584102B02F
:10B4800070BD00BF00420120012807D0F2EE007A13
:10B490000428B3EE000A00FE270A7047B0EE000A47
:10B4A000704700BF30B40023314D32494CF2503464
:10B4B000C5F8443A304AD1F8600F04E0D1F8603F53
:10B4C0001B1AA3420FD8D368DB03F7D4D16811F459
:10B4D000F9710BD1D06810F0010002D001230846A9
:10B4E000D36030BC7047032030BC7047D3689B07E3
:10B4F00005D5D5F8443A43F02003C5F8443A1E4B2D
:10B50000DB68DC0605D5D5F8443A43F01003C5F8EE
:10B51000443A194BDB68980605D5D5F8443A43F010
:10B520000803C5F8443A144BDB68590605D5D5F82D
:10B53000443A43F00403C5F8443A0F4BDB681A065B
:10B5400005D5D5F8443A43F00203C5F8443A0A4B0E
:10B55000DB68DB0505D5D5F8443A43F04003C5F870
:10B56000443A054B4FF4F9720120DA6030BC704761
:10B570001838012020270120003C02409FED747AFA
:10B5800007EE901A20EE070AF8EE677A27EE800A97
:10B59000FDEEC07A17EE903A2033402B00F2C880BF
:10B5A000DFED6C7AB4EEE70AF0EE407AF1EE10FAD5
:10B5B0000CDD9FED696ADFED696AB0EE677A77EEC0
:10B5C000C67AB4EEE67AF1EE10FAF6DC9FED647A14
:10B5D000F4EEC77AF1EE10FA0CD59FED5F6ADFED5D
:10B5E000616AB0EE677A77EE867AB4EEE67AF1EECB
:10B5F00010FAF6D49FED5C7AF4EEC77AF1EE10FA09
:10B6000040F386809FED537A77EE677A67EEA75A0C
:10B610009FED565A9FED566AB6EE007ADFED556AF9
:10B62000A5EE856A27EEA55AE5EE866AE5EE267A4E
:10B6300027EE877ADFED4C6A70EE267ABDEEE76A78
:10B6400016EE103A2033402B6FD8B4EEE60AF1EE36
:10B6500010FA0CDDDFED405A9FED406AF0EE676AAC
:10B6600077EEE57AF4EEC66AF1EE10FAF6DCDFED7D
:10B670003C6AF4EEE67AF1EE10FA0CD5DFED365ABC
:10B680009FED386AF0EE676A77EEA57AF4EEC66A47
:10B69000F1EE10FAF6D4DFED346AF4EEE67AF1EE6C
:10B6A00010FA48DDDFED2B6A76EEE77A67EEA75AEF
:10B6B000DFED2E4A9FED2E6AB8EE005ADFED2D6ABF
:10B6C000A5EEA46A67EEA54AE5EE866AE4EEA67AE0
:10B6D00067EE857AC7EE206A0023836143610362C7
:10B6E000B7EE006AC36176EE865A76EE666A86EE3B
:10B6F000257A67EE277A80ED007A66EE876A80ED1C
:10B70000027AC0ED017AC0ED037AC0ED046A704799
:10B710009FED197AF4EEC77AF1EE10FA7FF576AF65
:10B720009FED0F7A77EE677A70E7DFED147AD1E755
:10B730009FED127A7EE7DFED106AF4EEE67AF1EE25
:10B7400010FAB3D5DFED066A76EEE77AAEE700BF12
:10B7500027D4D236DB0F4940DB0FC940E4CB16417A
:10B76000DB0F49C0E4CB16C1DB0FC93F92E741B9FB
:10B770009730083C15A82ABEDB0FC9BF00000000A7
:10B78000F0B500230E680DE0BCF1050F17D9BEF12E
:10B79000050F18D80A2C16D103EB830316F8010BFA
:10B7A00004EB4303A0F13005A0F1610CA0F1410EC0
:10B7B000A0F13704EFB2092FE6D82C46ECE7A0F150
:10B7C00057040A2CE8D00E601360F0BD084800232F
:10B7D000024611780632022904D00133062BF8D133
:10B7E0000020704703EB430300EB4300704700BFAA
:10B7F00028160120002130B5094C83B00846094DB8
:10B80000C4F8481A26F0B2F8042304F64C200621A6
:10B8100001950DEB030238F0EBFA03B030BD00BF29
:10B82000183801205475C52A70B5461E00F131053F
:10B83000344614F8011F601EFF29A0EB060002D059
:10B84000C0B226F093F8AC42F3D1A02040F2E93424
:10B8500047F0B0F9012102200E4D26F087F801E0F3
:10B86000013C05D04221284638F0A6FA0028F7D13D
:10B870006221084838F0A0FA1321242026F076F837
:10B880002520092126F072F8A020BDE8704047F07D
:10B8900091B900BF6442012030B5044683B000BFB7
:10B8A000C068002537F096FE4CF2050301AA6946F0
:10B8B000ADF80030032360688DF802504BF0F0FFC4
:10B8C000E06837F08DFE00BF9DF8060003B030BD84
:10B8D000F0B5BD4E85B024220021BC4851F07EFC5D
:10B8E00096F85D4A002C37D12546B84CD4F8783903
:10B8F00043B39B6A33B3B6489847836813B303884E
:10B900000022B24C013B214620469BB2067806300D
:10B91000032E1AD00132062AF8D100220878063107
:10B92000022800F0A5800132062AF7D1616A0529B4
:10B9300008D002FB014201316162022000219380A4
:10B9400010705180284605B0F0BD062303FB02426B
:10B950005388013B9BB2E0E706F6642396F85C0A45
:10B96000C6F8603A10B90025984CBFE737F002FDE1
:10B970000746C6F8700A37F00FFE05460028F2D0D9
:10B98000013C022360B286F8643A38F0EBFA0028F2
:10B99000E9D0C6F8680A0FB12023FB8038460D2194
